20230709-22:46:45.611202000 : 8=FIX.4.4|9=102|35=A|34=1|49=D103452324_client1|52=20230709-22:46:45.610|56=FXCM|98=0|108=30|553=chris|554=tradermade|10=096|
20230709-22:47:29.062178000 : 8=FIX.4.4|9=102|35=A|34=3|49=D103452324_client1|52=20230709-22:47:29.061|56=FXCM|98=0|108=30|553=chris|554=tradermade|10=101|
20230709-22:48:42.056740000 : 8=FIX.4.4|9=102|35=A|34=4|49=D103452324_client1|52=20230709-22:48:42.055|56=FXCM|98=0|108=30|553=chris|554=tradermade|10=101|
20230709-22:49:21.987829000 : 8=FIX.4.4|9=102|35=A|34=6|49=D103452324_client1|52=20230709-22:49:21.986|56=FXCM|98=0|108=30|553=chris|554=tradermade|10=114|
20230709-22:49:51.301743000 : 8=FIX.4.4|9=102|35=A|34=8|49=D103452324_client1|52=20230709-22:49:51.301|56=FXCM|98=0|108=30|553=chris|554=tradermade|10=100|
20230709-22:50:21.283441000 : 8=FIX.4.4|9=103|35=A|34=10|49=D103452324_client1|52=20230709-22:50:21.282|56=FXCM|98=0|108=30|553=chris|554=tradermade|10=139|
20230709-22:50:51.239587000 : 8=FIX.4.4|9=103|35=A|34=12|49=D103452324_client1|52=20230709-22:50:51.238|56=FXCM|98=0|108=30|553=chris|554=tradermade|10=145|
20230709-22:51:39.148544000 : 8=FIX.4.4|9=103|35=A|34=14|49=D103452324_client1|52=20230709-22:51:39.147|56=FXCM|98=0|108=30|553=chris|554=tradermade|10=153|
20230709-22:52:09.219416000 : 8=FIX.4.4|9=103|35=A|34=16|49=D103452324_client1|52=20230709-22:52:09.218|56=FXCM|98=0|108=30|553=chris|554=tradermade|10=152|
20230709-22:52:39.349127000 : 8=FIX.4.4|9=103|35=A|34=18|49=D103452324_client1|52=20230709-22:52:39.348|56=FXCM|98=0|108=30|553=chris|554=tradermade|10=161|
20230709-22:53:09.285368000 : 8=FIX.4.4|9=103|35=A|34=20|49=D103452324_client1|52=20230709-22:53:09.284|56=FXCM|98=0|108=30|553=chris|554=tradermade|10=151|
20230709-22:55:30.909989000 : 8=FIX.4.4|9=103|35=A|34=22|49=D103452324_client1|52=20230709-22:55:30.908|56=FXCM|98=0|108=30|553=chris|554=tradermade|10=152|
20230709-22:56:00.437294000 : 8=FIX.4.4|9=103|35=A|34=24|49=D103452324_client1|52=20230709-22:56:00.436|56=FXCM|98=0|108=30|553=chris|554=tradermade|10=148|
20230709-22:56:30.430248000 : 8=FIX.4.4|9=103|35=A|34=26|49=D103452324_client1|52=20230709-22:56:30.429|56=FXCM|98=0|108=30|553=chris|554=tradermade|10=155|
20230709-22:57:00.980324000 : 8=FIX.4.4|9=103|35=A|34=28|49=D103452324_client1|52=20230709-22:57:00.979|56=FXCM|98=0|108=30|553=chris|554=tradermade|10=165|
20230709-23:00:24.977337000 : 8=FIX.4.4|9=103|35=A|34=30|49=D103452324_client1|52=20230709-23:00:24.976|56=FXCM|98=0|108=30|553=chris|554=tradermade|10=150|
20230709-23:00:54.211792000 : 8=FIX.4.4|9=103|35=A|34=32|49=D103452324_client1|52=20230709-23:00:54.211|56=FXCM|98=0|108=30|553=chris|554=tradermade|10=137|
20230709-23:01:24.611333000 : 8=FIX.4.4|9=103|35=A|34=34|49=D103452324_client1|52=20230709-23:01:24.610|56=FXCM|98=0|108=30|553=chris|554=tradermade|10=140|
20230709-23:01:54.590594000 : 8=FIX.4.4|9=103|35=A|34=36|49=D103452324_client1|52=20230709-23:01:54.590|56=FXCM|98=0|108=30|553=chris|554=tradermade|10=152|
20230709-23:02:24.195426000 : 8=FIX.4.4|9=103|35=A|34=38|49=D103452324_client1|52=20230709-23:02:24.194|56=FXCM|98=0|108=30|553=chris|554=tradermade|10=152|
20230709-23:02:54.203353000 : 8=FIX.4.4|9=103|35=A|34=40|49=D103452324_client1|52=20230709-23:02:54.202|56=FXCM|98=0|108=30|553=chris|554=tradermade|10=138|
20230709-23:03:16.227332000 : 8=FIX.4.4|9=103|35=A|34=41|49=D103452324_client1|52=20230709-23:03:16.226|56=FXCM|98=0|108=30|553=chris|554=tradermade|10=144|
20230709-23:03:46.492439000 : 8=FIX.4.4|9=103|35=A|34=43|49=D103452324_client1|52=20230709-23:03:46.491|56=FXCM|98=0|108=30|553=chris|554=tradermade|10=153|
20230709-23:04:16.814024000 : 8=FIX.4.4|9=103|35=A|34=45|49=D103452324_client1|52=20230709-23:04:16.812|56=FXCM|98=0|108=30|553=chris|554=tradermade|10=150|
20230709-23:04:47.101670000 : 8=FIX.4.4|9=103|35=A|34=47|49=D103452324_client1|52=20230709-23:04:47.101|56=FXCM|98=0|108=30|553=chris|554=tradermade|10=147|
20230709-23:05:16.204904000 : 8=FIX.4.4|9=103|35=A|34=49|49=D103452324_client1|52=20230709-23:05:16.204|56=FXCM|98=0|108=30|553=chris|554=tradermade|10=150|
20230709-23:05:46.562154000 : 8=FIX.4.4|9=103|35=A|34=51|49=D103452324_client1|52=20230709-23:05:46.561|56=FXCM|98=0|108=30|553=chris|554=tradermade|10=152|
20230709-23:06:16.448515000 : 8=FIX.4.4|9=103|35=A|34=53|49=D103452324_client1|52=20230709-23:06:16.447|56=FXCM|98=0|108=30|553=chris|554=tradermade|10=155|
20230709-23:06:46.204221000 : 8=FIX.4.4|9=103|35=A|34=55|49=D103452324_client1|52=20230709-23:06:46.203|56=FXCM|98=0|108=30|553=chris|554=tradermade|10=150|
20230709-23:07:16.503758000 : 8=FIX.4.4|9=103|35=A|34=57|49=D103452324_client1|52=20230709-23:07:16.503|56=FXCM|98=0|108=30|553=chris|554=tradermade|10=153|
20230709-23:07:46.541741000 : 8=FIX.4.4|9=103|35=A|34=59|49=D103452324_client1|52=20230709-23:07:46.541|56=FXCM|98=0|108=30|553=chris|554=tradermade|10=160|
20230709-23:08:16.247961000 : 8=FIX.4.4|9=103|35=A|34=61|49=D103452324_client1|52=20230709-23:08:16.247|56=FXCM|98=0|108=30|553=chris|554=tradermade|10=154|
20230709-23:08:46.575518000 : 8=FIX.4.4|9=103|35=A|34=63|49=D103452324_client1|52=20230709-23:08:46.574|56=FXCM|98=0|108=30|553=chris|554=tradermade|10=162|
20230709-23:09:16.235326000 : 8=FIX.4.4|9=103|35=A|34=65|49=D103452324_client1|52=20230709-23:09:16.234|56=FXCM|98=0|108=30|553=chris|554=tradermade|10=155|
20230709-23:09:46.253987000 : 8=FIX.4.4|9=103|35=A|34=67|49=D103452324_client1|52=20230709-23:09:46.253|56=FXCM|98=0|108=30|553=chris|554=tradermade|10=161|
20230709-23:10:16.406665000 : 8=FIX.4.4|9=103|35=A|34=69|49=D103452324_client1|52=20230709-23:10:16.406|56=FXCM|98=0|108=30|553=chris|554=tradermade|10=152|
20230709-23:10:46.227249000 : 8=FIX.4.4|9=103|35=A|34=71|49=D103452324_client1|52=20230709-23:10:46.226|56=FXCM|98=0|108=30|553=chris|554=tradermade|10=148|
20230709-23:11:16.429943000 : 8=FIX.4.4|9=103|35=A|34=73|49=D103452324_client1|52=20230709-23:11:16.429|56=FXCM|98=0|108=30|553=chris|554=tradermade|10=153|
20230709-23:11:46.650638000 : 8=FIX.4.4|9=103|35=A|34=75|49=D103452324_client1|52=20230709-23:11:46.650|56=FXCM|98=0|108=30|553=chris|554=tradermade|10=154|
20230709-23:12:16.201199000 : 8=FIX.4.4|9=103|35=A|34=77|49=D103452324_client1|52=20230709-23:12:16.200|56=FXCM|98=0|108=30|553=chris|554=tradermade|10=145|
20230709-23:12:46.507554000 : 8=FIX.4.4|9=103|35=A|34=79|49=D103452324_client1|52=20230709-23:12:46.506|56=FXCM|98=0|108=30|553=chris|554=tradermade|10=159|
20230709-23:13:16.518367000 : 8=FIX.4.4|9=103|35=A|34=81|49=D103452324_client1|52=20230709-23:13:16.517|56=FXCM|98=0|108=30|553=chris|554=tradermade|10=152|
20230709-23:13:46.257506000 : 8=FIX.4.4|9=103|35=A|34=83|49=D103452324_client1|52=20230709-23:13:46.256|56=FXCM|98=0|108=30|553=chris|554=tradermade|10=157|
20230709-23:14:16.345284000 : 8=FIX.4.4|9=103|35=A|34=85|49=D103452324_client1|52=20230709-23:14:16.344|56=FXCM|98=0|108=30|553=chris|554=tradermade|10=155|
20230709-23:14:46.184498000 : 8=FIX.4.4|9=103|35=A|34=87|49=D103452324_client1|52=20230709-23:14:46.183|56=FXCM|98=0|108=30|553=chris|554=tradermade|10=161|
20230709-23:15:16.555912000 : 8=FIX.4.4|9=103|35=A|34=89|49=D103452324_client1|52=20230709-23:15:16.555|56=FXCM|98=0|108=30|553=chris|554=tradermade|10=164|
20230709-23:15:46.155597000 : 8=FIX.4.4|9=103|35=A|34=91|49=D103452324_client1|52=20230709-23:15:46.155|56=FXCM|98=0|108=30|553=chris|554=tradermade|10=156|
20230709-23:16:16.311897000 : 8=FIX.4.4|9=103|35=A|34=93|49=D103452324_client1|52=20230709-23:16:16.311|56=FXCM|98=0|108=30|553=chris|554=tradermade|10=150|
20230709-23:16:46.409146000 : 8=FIX.4.4|9=103|35=A|34=95|49=D103452324_client1|52=20230709-23:16:46.408|56=FXCM|98=0|108=30|553=chris|554=tradermade|10=162|
20230709-23:17:16.188306000 : 8=FIX.4.4|9=103|35=A|34=97|49=D103452324_client1|52=20230709-23:17:16.187|56=FXCM|98=0|108=30|553=chris|554=tradermade|10=166|
20230709-23:17:46.605385000 : 8=FIX.4.4|9=103|35=A|34=99|49=D103452324_client1|52=20230709-23:17:46.604|56=FXCM|98=0|108=30|553=chris|554=tradermade|10=165|
20230709-23:18:16.347109000 : 8=FIX.4.4|9=104|35=A|34=101|49=D103452324_client1|52=20230709-23:18:16.346|56=FXCM|98=0|108=30|553=chris|554=tradermade|10=199|
20230709-23:18:46.618587000 : 8=FIX.4.4|9=104|35=A|34=103|49=D103452324_client1|52=20230709-23:18:46.617|56=FXCM|98=0|108=30|553=chris|554=tradermade|10=205|
20230709-23:19:16.244467000 : 8=FIX.4.4|9=104|35=A|34=105|49=D103452324_client1|52=20230709-23:19:16.243|56=FXCM|98=0|108=30|553=chris|554=tradermade|10=200|
20230709-23:19:46.343665000 : 8=FIX.4.4|9=104|35=A|34=107|49=D103452324_client1|52=20230709-23:19:46.343|56=FXCM|98=0|108=30|553=chris|554=tradermade|10=206|
20230709-23:27:24.546611000 : 8=FIX.4.4|9=104|35=A|34=109|49=D103452324_client1|52=20230709-23:27:24.545|56=FXCM|98=0|108=30|553=chris|554=tradermade|10=207|
20230709-23:27:54.234167000 : 8=FIX.4.4|9=104|35=A|34=111|49=D103452324_client1|52=20230709-23:27:54.233|56=FXCM|98=0|108=30|553=chris|554=tradermade|10=197|
20230709-23:28:24.163598000 : 8=FIX.4.4|9=104|35=A|34=113|49=D103452324_client1|52=20230709-23:28:24.163|56=FXCM|98=0|108=30|553=chris|554=tradermade|10=199|
20230709-23:28:55.078423000 : 8=FIX.4.4|9=104|35=A|34=115|49=D103452324_client1|52=20230709-23:28:55.077|56=FXCM|98=0|108=30|553=chris|554=tradermade|10=209|
20230709-23:31:53.409395000 : 8=FIX.4.4|9=104|35=A|34=116|49=D103452324_client1|52=20230709-23:31:53.408|56=FXCM|98=0|108=30|553=chris|554=tradermade|10=200|
20230709-23:32:23.516610000 : 8=FIX.4.4|9=104|35=A|34=118|49=D103452324_client1|52=20230709-23:32:23.516|56=FXCM|98=0|108=30|553=chris|554=tradermade|10=200|
20230709-23:33:04.571798000 : 8=FIX.4.4|9=104|35=A|34=120|49=D103452324_client1|52=20230709-23:33:04.570|56=FXCM|98=0|108=30|553=chris|554=tradermade|10=193|
20230709-23:33:34.397997000 : 8=FIX.4.4|9=104|35=A|34=122|49=D103452324_client1|52=20230709-23:33:34.397|56=FXCM|98=0|108=30|553=chris|554=tradermade|10=205|
20230709-23:34:04.150275000 : 8=FIX.4.4|9=104|35=A|34=124|49=D103452324_client1|52=20230709-23:34:04.149|56=FXCM|98=0|108=30|553=chris|554=tradermade|10=200|
20230709-23:34:40.547526000 : 8=FIX.4.4|9=104|35=A|34=125|49=D103452324_client1|52=20230709-23:34:40.546|56=FXCM|98=0|108=30|553=chris|554=tradermade|10=202|
20230709-23:35:10.496470000 : 8=FIX.4.4|9=104|35=A|34=127|49=D103452324_client1|52=20230709-23:35:10.495|56=FXCM|98=0|108=30|553=chris|554=tradermade|10=205|
20230709-23:35:40.149013000 : 8=FIX.4.4|9=104|35=A|34=129|49=D103452324_client1|52=20230709-23:35:40.148|56=FXCM|98=0|108=30|553=chris|554=tradermade|10=205|
20230709-23:48:16.549855000 : 8=FIX.4.4|9=104|35=A|34=131|49=D103452324_client1|52=20230709-23:48:16.548|56=FXCM|98=0|108=30|553=chris|554=tradermade|10=209|
20230709-23:48:46.525370000 : 8=FIX.4.4|9=104|35=A|34=133|49=D103452324_client1|52=20230709-23:48:46.524|56=FXCM|98=0|108=30|553=chris|554=tradermade|10=208|
20230709-23:49:16.748534000 : 8=FIX.4.4|9=104|35=A|34=135|49=D103452324_client1|52=20230709-23:49:16.747|56=FXCM|98=0|108=30|553=chris|554=tradermade|10=215|
20230709-23:50:39.293270000 : 8=FIX.4.4|9=104|35=A|34=136|49=D103452324_client1|52=20230709-23:50:39.292|56=FXCM|98=0|108=30|553=chris|554=tradermade|10=208|
20230709-23:51:09.269594000 : 8=FIX.4.4|9=104|35=A|34=138|49=D103452324_client1|52=20230709-23:51:09.268|56=FXCM|98=0|108=30|553=chris|554=tradermade|10=211|
20230709-23:52:33.971968000 : 8=FIX.4.4|9=104|35=A|34=140|49=D103452324_client1|52=20230709-23:52:33.970|56=FXCM|98=0|108=30|553=chris|554=tradermade|10=202|
20230709-23:53:03.373592000 : 8=FIX.4.4|9=104|35=A|34=142|49=D103452324_client1|52=20230709-23:53:03.372|56=FXCM|98=0|108=30|553=chris|554=tradermade|10=198|
20230709-23:53:33.302640000 : 8=FIX.4.4|9=104|35=A|34=144|49=D103452324_client1|52=20230709-23:53:33.302|56=FXCM|98=0|108=30|553=chris|554=tradermade|10=196|
20230709-23:54:03.967272000 : 8=FIX.4.4|9=104|35=A|34=146|49=D103452324_client1|52=20230709-23:54:03.966|56=FXCM|98=0|108=30|553=chris|554=tradermade|10=212|
20230709-23:57:33.071598000 : 8=FIX.4.4|9=104|35=A|34=148|49=D103452324_client1|52=20230709-23:57:33.070|56=FXCM|98=0|108=30|553=chris|554=tradermade|10=206|
20230709-23:58:03.398870000 : 8=FIX.4.4|9=104|35=A|34=150|49=D103452324_client1|52=20230709-23:58:03.398|56=FXCM|98=0|108=30|553=chris|554=tradermade|10=210|
20230709-23:58:33.299733000 : 8=FIX.4.4|9=104|35=A|34=152|49=D103452324_client1|52=20230709-23:58:33.299|56=FXCM|98=0|108=30|553=chris|554=tradermade|10=215|
20230710-00:01:12.326880000 : 8=FIX.4.4|9=102|35=A|34=1|49=D103452324_client1|52=20230710-00:01:12.326|56=FXCM|98=0|108=30|553=chris|554=tradermade|10=073|
20230710-00:01:42.303945000 : 8=FIX.4.4|9=102|35=A|34=3|49=D103452324_client1|52=20230710-00:01:42.303|56=FXCM|98=0|108=30|553=chris|554=tradermade|10=073|
20230710-00:02:12.602731000 : 8=FIX.4.4|9=102|35=A|34=5|49=D103452324_client1|52=20230710-00:02:12.602|56=FXCM|98=0|108=30|553=chris|554=tradermade|10=075|
20230710-00:02:42.281953000 : 8=FIX.4.4|9=102|35=A|34=7|49=D103452324_client1|52=20230710-00:02:42.281|56=FXCM|98=0|108=30|553=chris|554=tradermade|10=083|
20230710-00:03:12.551302000 : 8=FIX.4.4|9=102|35=A|34=9|49=D103452324_client1|52=20230710-00:03:12.550|56=FXCM|98=0|108=30|553=chris|554=tradermade|10=082|
20230710-00:03:49.474003000 : 8=FIX.4.4|9=103|35=A|34=11|49=D103452324_client1|52=20230710-00:03:49.473|56=FXCM|98=0|108=30|553=chris|554=tradermade|10=138|
20230710-00:04:19.398380000 : 8=FIX.4.4|9=103|35=A|34=13|49=D103452324_client1|52=20230710-00:04:19.397|56=FXCM|98=0|108=30|553=chris|554=tradermade|10=143|
20230710-00:04:49.468741000 : 8=FIX.4.4|9=103|35=A|34=15|49=D103452324_client1|52=20230710-00:04:49.467|56=FXCM|98=0|108=30|553=chris|554=tradermade|10=146|
20230710-00:05:19.189776000 : 8=FIX.4.4|9=103|35=A|34=17|49=D103452324_client1|52=20230710-00:05:19.189|56=FXCM|98=0|108=30|553=chris|554=tradermade|10=147|
20230710-00:05:47.432550000 : 8=FIX.4.4|9=103|35=A|34=19|49=D103452324_client1|52=20230710-00:05:47.431|56=FXCM|98=0|108=30|553=chris|554=tradermade|10=140|
20230710-00:06:17.268092000 : 8=FIX.4.4|9=103|35=A|34=21|49=D103452324_client1|52=20230710-00:06:17.267|56=FXCM|98=0|108=30|553=chris|554=tradermade|10=138|
20230710-00:06:47.461331000 : 8=FIX.4.4|9=103|35=A|34=23|49=D103452324_client1|52=20230710-00:06:47.460|56=FXCM|98=0|108=30|553=chris|554=tradermade|10=138|
20230710-00:07:17.306817000 : 8=FIX.4.4|9=103|35=A|34=25|49=D103452324_client1|52=20230710-00:07:17.306|56=FXCM|98=0|108=30|553=chris|554=tradermade|10=137|
20230710-00:07:47.188448000 : 8=FIX.4.4|9=103|35=A|34=27|49=D103452324_client1|52=20230710-00:07:47.184|56=FXCM|98=0|108=30|553=chris|554=tradermade|10=146|
20230710-00:08:17.294567000 : 8=FIX.4.4|9=103|35=A|34=29|49=D103452324_client1|52=20230710-00:08:17.293|56=FXCM|98=0|108=30|553=chris|554=tradermade|10=147|
20230710-00:08:47.674279000 : 8=FIX.4.4|9=103|35=A|34=31|49=D103452324_client1|52=20230710-00:08:47.673|56=FXCM|98=0|108=30|553=chris|554=tradermade|10=145|
20230710-00:09:17.787211000 : 8=FIX.4.4|9=103|35=A|34=33|49=D103452324_client1|52=20230710-00:09:17.786|56=FXCM|98=0|108=30|553=chris|554=tradermade|10=150|
20230710-00:09:48.007954000 : 8=FIX.4.4|9=103|35=A|34=35|49=D103452324_client1|52=20230710-00:09:48.007|56=FXCM|98=0|108=30|553=chris|554=tradermade|10=142|
20230710-00:10:17.257370000 : 8=FIX.4.4|9=103|35=A|34=37|49=D103452324_client1|52=20230710-00:10:17.256|56=FXCM|98=0|108=30|553=chris|554=tradermade|10=138|
20230710-00:10:47.197750000 : 8=FIX.4.4|9=103|35=A|34=39|49=D103452324_client1|52=20230710-00:10:47.197|56=FXCM|98=0|108=30|553=chris|554=tradermade|10=147|
20230710-00:11:17.491424000 : 8=FIX.4.4|9=103|35=A|34=41|49=D103452324_client1|52=20230710-00:11:17.490|56=FXCM|98=0|108=30|553=chris|554=tradermade|10=134|
20230710-00:11:47.823494000 : 8=FIX.4.4|9=103|35=A|34=43|49=D103452324_client1|52=20230710-00:11:47.823|56=FXCM|98=0|108=30|553=chris|554=tradermade|10=139|
20230710-00:12:17.287327000 : 8=FIX.4.4|9=103|35=A|34=45|49=D103452324_client1|52=20230710-00:12:17.286|56=FXCM|98=0|108=30|553=chris|554=tradermade|10=142|
20230710-00:12:24.612067000 : 8=FIX.4.4|9=103|35=A|34=46|49=D103452324_client1|52=20230710-00:12:24.611|56=FXCM|98=0|108=30|553=chris|554=tradermade|10=133|
20230710-00:12:54.198985000 : 8=FIX.4.4|9=103|35=A|34=48|49=D103452324_client1|52=20230710-00:12:54.198|56=FXCM|98=0|108=30|553=chris|554=tradermade|10=148|
20230710-00:13:24.821816000 : 8=FIX.4.4|9=103|35=A|34=50|49=D103452324_client1|52=20230710-00:13:24.821|56=FXCM|98=0|108=30|553=chris|554=tradermade|10=132|
20230710-00:13:54.285973000 : 8=FIX.4.4|9=103|35=A|34=52|49=D103452324_client1|52=20230710-00:13:54.285|56=FXCM|98=0|108=30|553=chris|554=tradermade|10=141|
20230710-00:14:17.122624000 : 8=FIX.4.4|9=103|35=A|34=53|49=D103452324_client1|52=20230710-00:14:17.121|56=FXCM|98=0|108=30|553=chris|554=tradermade|10=131|
20230710-00:14:47.507711000 : 8=FIX.4.4|9=103|35=A|34=55|49=D103452324_client1|52=20230710-00:14:47.507|56=FXCM|98=0|108=30|553=chris|554=tradermade|10=144|
20230710-00:15:17.963986000 : 8=FIX.4.4|9=103|35=A|34=57|49=D103452324_client1|52=20230710-00:15:17.963|56=FXCM|98=0|108=30|553=chris|554=tradermade|10=150|
20230710-00:15:47.176591000 : 8=FIX.4.4|9=103|35=A|34=59|49=D103452324_client1|52=20230710-00:15:47.174|56=FXCM|98=0|108=30|553=chris|554=tradermade|10=149|
20230710-00:16:17.398471000 : 8=FIX.4.4|9=103|35=A|34=61|49=D103452324_client1|52=20230710-00:16:17.397|56=FXCM|98=0|108=30|553=chris|554=tradermade|10=147|
20230710-00:16:47.161507000 : 8=FIX.4.4|9=103|35=A|34=63|49=D103452324_client1|52=20230710-00:16:47.160|56=FXCM|98=0|108=30|553=chris|554=tradermade|10=140|
20230710-00:17:18.007213000 : 8=FIX.4.4|9=103|35=A|34=65|49=D103452324_client1|52=20230710-00:17:18.006|56=FXCM|98=0|108=30|553=chris|554=tradermade|10=140|
20230710-00:17:47.793963000 : 8=FIX.4.4|9=103|35=A|34=67|49=D103452324_client1|52=20230710-00:17:47.793|56=FXCM|98=0|108=30|553=chris|554=tradermade|10=157|
20230710-00:18:17.608468000 : 8=FIX.4.4|9=103|35=A|34=69|49=D103452324_client1|52=20230710-00:18:17.607|56=FXCM|98=0|108=30|553=chris|554=tradermade|10=151|
20230710-00:18:47.457393000 : 8=FIX.4.4|9=103|35=A|34=71|49=D103452324_client1|52=20230710-00:18:47.456|56=FXCM|98=0|108=30|553=chris|554=tradermade|10=149|
20230710-00:19:17.177827000 : 8=FIX.4.4|9=103|35=A|34=73|49=D103452324_client1|52=20230710-00:19:17.177|56=FXCM|98=0|108=30|553=chris|554=tradermade|10=149|
20230710-00:19:47.354190000 : 8=FIX.4.4|9=103|35=A|34=75|49=D103452324_client1|52=20230710-00:19:47.353|56=FXCM|98=0|108=30|553=chris|554=tradermade|10=150|
20230710-00:20:17.220997000 : 8=FIX.4.4|9=103|35=A|34=77|49=D103452324_client1|52=20230710-00:20:17.220|56=FXCM|98=0|108=30|553=chris|554=tradermade|10=134|
20230710-00:20:47.284455000 : 8=FIX.4.4|9=103|35=A|34=79|49=D103452324_client1|52=20230710-00:20:47.283|56=FXCM|98=0|108=30|553=chris|554=tradermade|10=148|
20230710-00:21:17.339185000 : 8=FIX.4.4|9=103|35=A|34=81|49=D103452324_client1|52=20230710-00:21:17.338|56=FXCM|98=0|108=30|553=chris|554=tradermade|10=140|
20230710-00:21:47.171690000 : 8=FIX.4.4|9=103|35=A|34=83|49=D103452324_client1|52=20230710-00:21:47.170|56=FXCM|98=0|108=30|553=chris|554=tradermade|10=139|
20230710-00:22:17.155412000 : 8=FIX.4.4|9=103|35=A|34=85|49=D103452324_client1|52=20230710-00:22:17.154|56=FXCM|98=0|108=30|553=chris|554=tradermade|10=141|
20230710-00:22:47.545201000 : 8=FIX.4.4|9=103|35=A|34=87|49=D103452324_client1|52=20230710-00:22:47.544|56=FXCM|98=0|108=30|553=chris|554=tradermade|10=149|
20230710-00:23:33.868700000 : 8=FIX.4.4|9=103|35=A|34=89|49=D103452324_client1|52=20230710-00:23:33.867|56=FXCM|98=0|108=30|553=chris|554=tradermade|10=155|
20230710-00:24:03.209351000 : 8=FIX.4.4|9=103|35=A|34=91|49=D103452324_client1|52=20230710-00:24:03.208|56=FXCM|98=0|108=30|553=chris|554=tradermade|10=135|
20230710-00:24:33.292245000 : 8=FIX.4.4|9=103|35=A|34=93|49=D103452324_client1|52=20230710-00:24:33.291|56=FXCM|98=0|108=30|553=chris|554=tradermade|10=142|
20230710-00:25:03.176976000 : 8=FIX.4.4|9=103|35=A|34=95|49=D103452324_client1|52=20230710-00:25:03.176|56=FXCM|98=0|108=30|553=chris|554=tradermade|10=144|
20230710-00:25:33.296146000 : 8=FIX.4.4|9=103|35=A|34=97|49=D103452324_client1|52=20230710-00:25:33.295|56=FXCM|98=0|108=30|553=chris|554=tradermade|10=151|
20230710-00:26:03.570456000 : 8=FIX.4.4|9=103|35=A|34=99|49=D103452324_client1|52=20230710-00:26:03.569|56=FXCM|98=0|108=30|553=chris|554=tradermade|10=155|
20230710-00:26:33.223724000 : 8=FIX.4.4|9=104|35=A|34=101|49=D103452324_client1|52=20230710-00:26:33.223|56=FXCM|98=0|108=30|553=chris|554=tradermade|10=178|
20230710-00:27:03.343870000 : 8=FIX.4.4|9=104|35=A|34=103|49=D103452324_client1|52=20230710-00:27:03.343|56=FXCM|98=0|108=30|553=chris|554=tradermade|10=181|
20230710-00:27:33.904542000 : 8=FIX.4.4|9=104|35=A|34=105|49=D103452324_client1|52=20230710-00:27:33.904|56=FXCM|98=0|108=30|553=chris|554=tradermade|10=189|
20230710-00:28:03.363665000 : 8=FIX.4.4|9=104|35=A|34=107|49=D103452324_client1|52=20230710-00:28:03.362|56=FXCM|98=0|108=30|553=chris|554=tradermade|10=187|
20230710-00:28:33.536619000 : 8=FIX.4.4|9=104|35=A|34=109|49=D103452324_client1|52=20230710-00:28:33.535|56=FXCM|98=0|108=30|553=chris|554=tradermade|10=194|
20230710-00:29:03.213184000 : 8=FIX.4.4|9=104|35=A|34=111|49=D103452324_client1|52=20230710-00:29:03.212|56=FXCM|98=0|108=30|553=chris|554=tradermade|10=177|
20230710-00:29:33.171882000 : 8=FIX.4.4|9=104|35=A|34=113|49=D103452324_client1|52=20230710-00:29:33.171|56=FXCM|98=0|108=30|553=chris|554=tradermade|10=186|
20230710-00:30:03.299521000 : 8=FIX.4.4|9=104|35=A|34=115|49=D103452324_client1|52=20230710-00:30:03.298|56=FXCM|98=0|108=30|553=chris|554=tradermade|10=187|
20230710-00:30:33.428278000 : 8=FIX.4.4|9=104|35=A|34=117|49=D103452324_client1|52=20230710-00:30:33.427|56=FXCM|98=0|108=30|553=chris|554=tradermade|10=186|
20230710-00:31:03.329277000 : 8=FIX.4.4|9=104|35=A|34=119|49=D103452324_client1|52=20230710-00:31:03.328|56=FXCM|98=0|108=30|553=chris|554=tradermade|10=186|
20230710-00:31:33.148123000 : 8=FIX.4.4|9=104|35=A|34=121|49=D103452324_client1|52=20230710-00:31:33.147|56=FXCM|98=0|108=30|553=chris|554=tradermade|10=181|
20230710-00:32:03.201042000 : 8=FIX.4.4|9=104|35=A|34=123|49=D103452324_client1|52=20230710-00:32:03.200|56=FXCM|98=0|108=30|553=chris|554=tradermade|10=171|
20230710-00:32:33.203328000 : 8=FIX.4.4|9=104|35=A|34=125|49=D103452324_client1|52=20230710-00:32:33.202|56=FXCM|98=0|108=30|553=chris|554=tradermade|10=178|
20230710-00:33:03.559706000 : 8=FIX.4.4|9=104|35=A|34=127|49=D103452324_client1|52=20230710-00:33:03.559|56=FXCM|98=0|108=30|553=chris|554=tradermade|10=193|
20230710-00:33:33.208927000 : 8=FIX.4.4|9=104|35=A|34=129|49=D103452324_client1|52=20230710-00:33:33.208|56=FXCM|98=0|108=30|553=chris|554=tradermade|10=189|
20230710-00:34:03.308309000 : 8=FIX.4.4|9=104|35=A|34=131|49=D103452324_client1|52=20230710-00:34:03.307|56=FXCM|98=0|108=30|553=chris|554=tradermade|10=180|
20230710-00:34:33.153730000 : 8=FIX.4.4|9=104|35=A|34=133|49=D103452324_client1|52=20230710-00:34:33.153|56=FXCM|98=0|108=30|553=chris|554=tradermade|10=184|
20230710-00:35:03.564796000 : 8=FIX.4.4|9=104|35=A|34=135|49=D103452324_client1|52=20230710-00:35:03.564|56=FXCM|98=0|108=30|553=chris|554=tradermade|10=190|
20230710-00:35:33.901627000 : 8=FIX.4.4|9=104|35=A|34=137|49=D103452324_client1|52=20230710-00:35:33.901|56=FXCM|98=0|108=30|553=chris|554=tradermade|10=190|
20230710-00:36:03.275422000 : 8=FIX.4.4|9=104|35=A|34=139|49=D103452324_client1|52=20230710-00:36:03.274|56=FXCM|98=0|108=30|553=chris|554=tradermade|10=193|
20230710-00:36:33.955971000 : 8=FIX.4.4|9=104|35=A|34=141|49=D103452324_client1|52=20230710-00:36:33.955|56=FXCM|98=0|108=30|553=chris|554=tradermade|10=195|
20230710-00:37:03.235377000 : 8=FIX.4.4|9=104|35=A|34=143|49=D103452324_client1|52=20230710-00:37:03.234|56=FXCM|98=0|108=30|553=chris|554=tradermade|10=185|
20230710-00:37:33.680934000 : 8=FIX.4.4|9=104|35=A|34=145|49=D103452324_client1|52=20230710-00:37:33.680|56=FXCM|98=0|108=30|553=chris|554=tradermade|10=195|
20230710-00:38:03.265847000 : 8=FIX.4.4|9=104|35=A|34=147|49=D103452324_client1|52=20230710-00:38:03.265|56=FXCM|98=0|108=30|553=chris|554=tradermade|10=194|
20230710-00:38:33.168714000 : 8=FIX.4.4|9=104|35=A|34=149|49=D103452324_client1|52=20230710-00:38:33.168|56=FXCM|98=0|108=30|553=chris|554=tradermade|10=201|
20230710-00:39:03.169227000 : 8=FIX.4.4|9=104|35=A|34=151|49=D103452324_client1|52=20230710-00:39:03.168|56=FXCM|98=0|108=30|553=chris|554=tradermade|10=192|
20230710-00:39:33.381087000 : 8=FIX.4.4|9=104|35=A|34=153|49=D103452324_client1|52=20230710-00:39:33.380|56=FXCM|98=0|108=30|553=chris|554=tradermade|10=193|
20230710-00:40:04.024044000 : 8=FIX.4.4|9=104|35=A|34=155|49=D103452324_client1|52=20230710-00:40:04.023|56=FXCM|98=0|108=30|553=chris|554=tradermade|10=179|
20230710-00:40:33.495876000 : 8=FIX.4.4|9=104|35=A|34=157|49=D103452324_client1|52=20230710-00:40:33.495|56=FXCM|98=0|108=30|553=chris|554=tradermade|10=196|
20230710-00:41:03.977609000 : 8=FIX.4.4|9=104|35=A|34=159|49=D103452324_client1|52=20230710-00:41:03.976|56=FXCM|98=0|108=30|553=chris|554=tradermade|10=200|
20230710-00:41:33.269324000 : 8=FIX.4.4|9=104|35=A|34=161|49=D103452324_client1|52=20230710-00:41:33.268|56=FXCM|98=0|108=30|553=chris|554=tradermade|10=190|
20230710-00:42:03.776719000 : 8=FIX.4.4|9=104|35=A|34=163|49=D103452324_client1|52=20230710-00:42:03.775|56=FXCM|98=0|108=30|553=chris|554=tradermade|10=193|
20230710-00:42:33.233948000 : 8=FIX.4.4|9=104|35=A|34=165|49=D103452324_client1|52=20230710-00:42:33.233|56=FXCM|98=0|108=30|553=chris|554=tradermade|10=187|
20230710-00:43:03.538141000 : 8=FIX.4.4|9=104|35=A|34=167|49=D103452324_client1|52=20230710-00:43:03.537|56=FXCM|98=0|108=30|553=chris|554=tradermade|10=194|
20230710-00:43:33.214382000 : 8=FIX.4.4|9=104|35=A|34=169|49=D103452324_client1|52=20230710-00:43:33.213|56=FXCM|98=0|108=30|553=chris|554=tradermade|10=190|
20230710-00:44:03.441089000 : 8=FIX.4.4|9=104|35=A|34=171|49=D103452324_client1|52=20230710-00:44:03.440|56=FXCM|98=0|108=30|553=chris|554=tradermade|10=183|
20230710-00:44:33.200144000 : 8=FIX.4.4|9=104|35=A|34=173|49=D103452324_client1|52=20230710-00:44:33.199|56=FXCM|98=0|108=30|553=chris|554=tradermade|10=199|
20230710-00:45:03.477184000 : 8=FIX.4.4|9=104|35=A|34=175|49=D103452324_client1|52=20230710-00:45:03.476|56=FXCM|98=0|108=30|553=chris|554=tradermade|10=197|
20230710-00:45:33.690781000 : 8=FIX.4.4|9=104|35=A|34=177|49=D103452324_client1|52=20230710-00:45:33.686|56=FXCM|98=0|108=30|553=chris|554=tradermade|10=205|
20230710-00:46:03.247074000 : 8=FIX.4.4|9=104|35=A|34=179|49=D103452324_client1|52=20230710-00:46:03.246|56=FXCM|98=0|108=30|553=chris|554=tradermade|10=197|
20230710-00:46:33.198720000 : 8=FIX.4.4|9=104|35=A|34=181|49=D103452324_client1|52=20230710-00:46:33.198|56=FXCM|98=0|108=30|553=chris|554=tradermade|10=199|
20230710-00:47:03.313624000 : 8=FIX.4.4|9=104|35=A|34=183|49=D103452324_client1|52=20230710-00:47:03.313|56=FXCM|98=0|108=30|553=chris|554=tradermade|10=188|
20230710-00:47:33.740806000 : 8=FIX.4.4|9=104|35=A|34=185|49=D103452324_client1|52=20230710-00:47:33.740|56=FXCM|98=0|108=30|553=chris|554=tradermade|10=197|
20230710-00:48:03.268987000 : 8=FIX.4.4|9=104|35=A|34=187|49=D103452324_client1|52=20230710-00:48:03.268|56=FXCM|98=0|108=30|553=chris|554=tradermade|10=202|
20230710-00:48:33.673489000 : 8=FIX.4.4|9=104|35=A|34=189|49=D103452324_client1|52=20230710-00:48:33.672|56=FXCM|98=0|108=30|553=chris|554=tradermade|10=206|
20230710-00:49:03.240265000 : 8=FIX.4.4|9=104|35=A|34=191|49=D103452324_client1|52=20230710-00:49:03.238|56=FXCM|98=0|108=30|553=chris|554=tradermade|10=195|
20230710-00:49:33.405756000 : 8=FIX.4.4|9=104|35=A|34=193|49=D103452324_client1|52=20230710-00:49:33.405|56=FXCM|98=0|108=30|553=chris|554=tradermade|10=196|
20230710-00:50:04.080844000 : 8=FIX.4.4|9=104|35=A|34=195|49=D103452324_client1|52=20230710-00:50:04.080|56=FXCM|98=0|108=30|553=chris|554=tradermade|10=187|
20230710-00:50:33.206717000 : 8=FIX.4.4|9=104|35=A|34=197|49=D103452324_client1|52=20230710-00:50:33.206|56=FXCM|98=0|108=30|553=chris|554=tradermade|10=191|
20230710-00:51:04.047368000 : 8=FIX.4.4|9=104|35=A|34=199|49=D103452324_client1|52=20230710-00:51:04.046|56=FXCM|98=0|108=30|553=chris|554=tradermade|10=194|
20230710-00:51:33.477454000 : 8=FIX.4.4|9=104|35=A|34=201|49=D103452324_client1|52=20230710-00:51:33.476|56=FXCM|98=0|108=30|553=chris|554=tradermade|10=187|
20230710-00:52:03.632878000 : 8=FIX.4.4|9=104|35=A|34=203|49=D103452324_client1|52=20230710-00:52:03.632|56=FXCM|98=0|108=30|553=chris|554=tradermade|10=181|
20230710-00:52:33.187262000 : 8=FIX.4.4|9=104|35=A|34=205|49=D103452324_client1|52=20230710-00:52:33.186|56=FXCM|98=0|108=30|553=chris|554=tradermade|10=190|
20230710-00:53:03.184339000 : 8=FIX.4.4|9=104|35=A|34=207|49=D103452324_client1|52=20230710-00:53:03.183|56=FXCM|98=0|108=30|553=chris|554=tradermade|10=187|
20230710-00:53:33.216823000 : 8=FIX.4.4|9=104|35=A|34=209|49=D103452324_client1|52=20230710-00:53:33.216|56=FXCM|98=0|108=30|553=chris|554=tradermade|10=189|
20230710-00:54:03.154928000 : 8=FIX.4.4|9=104|35=A|34=211|49=D103452324_client1|52=20230710-00:54:03.154|56=FXCM|98=0|108=30|553=chris|554=tradermade|10=181|
20230710-00:54:33.157635000 : 8=FIX.4.4|9=104|35=A|34=213|49=D103452324_client1|52=20230710-00:54:33.157|56=FXCM|98=0|108=30|553=chris|554=tradermade|10=189|
20230710-00:55:03.437383000 : 8=FIX.4.4|9=104|35=A|34=215|49=D103452324_client1|52=20230710-00:55:03.436|56=FXCM|98=0|108=30|553=chris|554=tradermade|10=189|
20230710-00:55:33.737243000 : 8=FIX.4.4|9=104|35=A|34=217|49=D103452324_client1|52=20230710-00:55:33.736|56=FXCM|98=0|108=30|553=chris|554=tradermade|10=197|
20230710-00:56:03.251422000 : 8=FIX.4.4|9=104|35=A|34=219|49=D103452324_client1|52=20230710-00:56:03.250|56=FXCM|98=0|108=30|553=chris|554=tradermade|10=188|
20230710-00:56:33.853905000 : 8=FIX.4.4|9=104|35=A|34=221|49=D103452324_client1|52=20230710-00:56:33.853|56=FXCM|98=0|108=30|553=chris|554=tradermade|10=193|
20230710-00:57:03.406098000 : 8=FIX.4.4|9=104|35=A|34=223|49=D103452324_client1|52=20230710-00:57:03.405|56=FXCM|98=0|108=30|553=chris|554=tradermade|10=186|
20230710-00:57:33.307720000 : 8=FIX.4.4|9=104|35=A|34=225|49=D103452324_client1|52=20230710-00:57:33.307|56=FXCM|98=0|108=30|553=chris|554=tradermade|10=192|
20230710-00:58:03.287405000 : 8=FIX.4.4|9=104|35=A|34=227|49=D103452324_client1|52=20230710-00:58:03.286|56=FXCM|98=0|108=30|553=chris|554=tradermade|10=198|
20230710-00:58:33.625967000 : 8=FIX.4.4|9=104|35=A|34=229|49=D103452324_client1|52=20230710-00:58:33.625|56=FXCM|98=0|108=30|553=chris|554=tradermade|10=200|
20230710-00:59:03.200656000 : 8=FIX.4.4|9=104|35=A|34=231|49=D103452324_client1|52=20230710-00:59:03.200|56=FXCM|98=0|108=30|553=chris|554=tradermade|10=180|
20230710-00:59:33.219686000 : 8=FIX.4.4|9=104|35=A|34=233|49=D103452324_client1|52=20230710-00:59:33.219|56=FXCM|98=0|108=30|553=chris|554=tradermade|10=195|
20230710-01:00:03.742753000 : 8=FIX.4.4|9=104|35=A|34=235|49=D103452324_client1|52=20230710-01:00:03.742|56=FXCM|98=0|108=30|553=chris|554=tradermade|10=182|
20230710-01:00:33.361274000 : 8=FIX.4.4|9=104|35=A|34=237|49=D103452324_client1|52=20230710-01:00:33.360|56=FXCM|98=0|108=30|553=chris|554=tradermade|10=183|
20230710-01:01:03.408300000 : 8=FIX.4.4|9=104|35=A|34=239|49=D103452324_client1|52=20230710-01:01:03.407|56=FXCM|98=0|108=30|553=chris|554=tradermade|10=185|
20230710-01:01:33.259942000 : 8=FIX.4.4|9=104|35=A|34=241|49=D103452324_client1|52=20230710-01:01:33.259|56=FXCM|98=0|108=30|553=chris|554=tradermade|10=186|
20230710-01:02:03.673194000 : 8=FIX.4.4|9=104|35=A|34=243|49=D103452324_client1|52=20230710-01:02:03.672|56=FXCM|98=0|108=30|553=chris|554=tradermade|10=185|
20230710-01:02:33.211254000 : 8=FIX.4.4|9=104|35=A|34=245|49=D103452324_client1|52=20230710-01:02:33.210|56=FXCM|98=0|108=30|553=chris|554=tradermade|10=178|
20230710-01:03:03.403667000 : 8=FIX.4.4|9=104|35=A|34=247|49=D103452324_client1|52=20230710-01:03:03.403|56=FXCM|98=0|108=30|553=chris|554=tradermade|10=182|
20230710-01:03:33.343835000 : 8=FIX.4.4|9=104|35=A|34=249|49=D103452324_client1|52=20230710-01:03:33.343|56=FXCM|98=0|108=30|553=chris|554=tradermade|10=190|
20230710-01:04:03.163058000 : 8=FIX.4.4|9=104|35=A|34=251|49=D103452324_client1|52=20230710-01:04:03.162|56=FXCM|98=0|108=30|553=chris|554=tradermade|10=180|
20230710-01:04:33.941213000 : 8=FIX.4.4|9=104|35=A|34=253|49=D103452324_client1|52=20230710-01:04:33.940|56=FXCM|98=0|108=30|553=chris|554=tradermade|10=189|
20230710-01:05:03.199234000 : 8=FIX.4.4|9=104|35=A|34=255|49=D103452324_client1|52=20230710-01:05:03.198|56=FXCM|98=0|108=30|553=chris|554=tradermade|10=194|
20230710-01:05:33.631253000 : 8=FIX.4.4|9=104|35=A|34=257|49=D103452324_client1|52=20230710-01:05:33.630|56=FXCM|98=0|108=30|553=chris|554=tradermade|10=190|
20230710-01:06:03.375911000 : 8=FIX.4.4|9=104|35=A|34=259|49=D103452324_client1|52=20230710-01:06:03.375|56=FXCM|98=0|108=30|553=chris|554=tradermade|10=196|
20230710-01:06:33.487704000 : 8=FIX.4.4|9=104|35=A|34=261|49=D103452324_client1|52=20230710-01:06:33.487|56=FXCM|98=0|108=30|553=chris|554=tradermade|10=196|
20230710-01:07:03.187603000 : 8=FIX.4.4|9=104|35=A|34=263|49=D103452324_client1|52=20230710-01:07:03.187|56=FXCM|98=0|108=30|553=chris|554=tradermade|10=193|
20230710-01:07:33.216336000 : 8=FIX.4.4|9=104|35=A|34=265|49=D103452324_client1|52=20230710-01:07:33.215|56=FXCM|98=0|108=30|553=chris|554=tradermade|10=190|
20230710-01:08:03.452094000 : 8=FIX.4.4|9=104|35=A|34=267|49=D103452324_client1|52=20230710-01:08:03.451|56=FXCM|98=0|108=30|553=chris|554=tradermade|10=192|
20230710-01:08:33.403969000 : 8=FIX.4.4|9=104|35=A|34=269|49=D103452324_client1|52=20230710-01:08:33.403|56=FXCM|98=0|108=30|553=chris|554=tradermade|10=194|
20230710-01:09:03.651883000 : 8=FIX.4.4|9=104|35=A|34=271|49=D103452324_client1|52=20230710-01:09:03.651|56=FXCM|98=0|108=30|553=chris|554=tradermade|10=190|
20230710-01:09:33.203343000 : 8=FIX.4.4|9=104|35=A|34=273|49=D103452324_client1|52=20230710-01:09:33.202|56=FXCM|98=0|108=30|553=chris|554=tradermade|10=187|
20230710-01:10:03.745293000 : 8=FIX.4.4|9=104|35=A|34=275|49=D103452324_client1|52=20230710-01:10:03.744|56=FXCM|98=0|108=30|553=chris|554=tradermade|10=189|
20230710-01:10:33.342810000 : 8=FIX.4.4|9=104|35=A|34=277|49=D103452324_client1|52=20230710-01:10:33.342|56=FXCM|98=0|108=30|553=chris|554=tradermade|10=188|
20230710-01:11:03.767134000 : 8=FIX.4.4|9=104|35=A|34=279|49=D103452324_client1|52=20230710-01:11:03.766|56=FXCM|98=0|108=30|553=chris|554=tradermade|10=198|
20230710-01:11:33.242036000 : 8=FIX.4.4|9=104|35=A|34=281|49=D103452324_client1|52=20230710-01:11:33.241|56=FXCM|98=0|108=30|553=chris|554=tradermade|10=182|
20230710-01:12:03.423350000 : 8=FIX.4.4|9=104|35=A|34=283|49=D103452324_client1|52=20230710-01:12:03.422|56=FXCM|98=0|108=30|553=chris|554=tradermade|10=183|
20230710-01:12:33.156590000 : 8=FIX.4.4|9=104|35=A|34=285|49=D103452324_client1|52=20230710-01:12:33.155|56=FXCM|98=0|108=30|553=chris|554=tradermade|10=191|
20230710-01:13:03.186469000 : 8=FIX.4.4|9=104|35=A|34=287|49=D103452324_client1|52=20230710-01:13:03.185|56=FXCM|98=0|108=30|553=chris|554=tradermade|10=194|
20230710-01:13:33.626009000 : 8=FIX.4.4|9=104|35=A|34=289|49=D103452324_client1|52=20230710-01:13:33.625|56=FXCM|98=0|108=30|553=chris|554=tradermade|10=198|
20230710-01:14:03.534286000 : 8=FIX.4.4|9=104|35=A|34=291|49=D103452324_client1|52=20230710-01:14:03.533|56=FXCM|98=0|108=30|553=chris|554=tradermade|10=187|
20230710-01:14:33.491478000 : 8=FIX.4.4|9=104|35=A|34=293|49=D103452324_client1|52=20230710-01:14:33.490|56=FXCM|98=0|108=30|553=chris|554=tradermade|10=194|
20230710-01:15:03.268734000 : 8=FIX.4.4|9=104|35=A|34=295|49=D103452324_client1|52=20230710-01:15:03.268|56=FXCM|98=0|108=30|553=chris|554=tradermade|10=197|
20230710-01:15:33.695180000 : 8=FIX.4.4|9=104|35=A|34=297|49=D103452324_client1|52=20230710-01:15:33.694|56=FXCM|98=0|108=30|553=chris|554=tradermade|10=205|
20230710-01:16:03.182515000 : 8=FIX.4.4|9=104|35=A|34=299|49=D103452324_client1|52=20230710-01:16:03.181|56=FXCM|98=0|108=30|553=chris|554=tradermade|10=196|
20230710-01:16:33.693129000 : 8=FIX.4.4|9=104|35=A|34=301|49=D103452324_client1|52=20230710-01:16:33.692|56=FXCM|98=0|108=30|553=chris|554=tradermade|10=190|
20230710-01:17:03.153229000 : 8=FIX.4.4|9=104|35=A|34=303|49=D103452324_client1|52=20230710-01:17:03.152|56=FXCM|98=0|108=30|553=chris|554=tradermade|10=181|
20230710-01:17:33.534274000 : 8=FIX.4.4|9=104|35=A|34=305|49=D103452324_client1|52=20230710-01:17:33.533|56=FXCM|98=0|108=30|553=chris|554=tradermade|10=189|
20230710-01:18:04.000741000 : 8=FIX.4.4|9=104|35=A|34=307|49=D103452324_client1|52=20230710-01:18:04.000|56=FXCM|98=0|108=30|553=chris|554=tradermade|10=179|
20230710-01:18:33.470116000 : 8=FIX.4.4|9=104|35=A|34=309|49=D103452324_client1|52=20230710-01:18:33.469|56=FXCM|98=0|108=30|553=chris|554=tradermade|10=202|
20230710-01:19:03.590366000 : 8=FIX.4.4|9=104|35=A|34=311|49=D103452324_client1|52=20230710-01:19:03.589|56=FXCM|98=0|108=30|553=chris|554=tradermade|10=196|
20230710-01:19:33.185588000 : 8=FIX.4.4|9=104|35=A|34=313|49=D103452324_client1|52=20230710-01:19:33.185|56=FXCM|98=0|108=30|553=chris|554=tradermade|10=193|
20230710-01:20:03.776063000 : 8=FIX.4.4|9=104|35=A|34=315|49=D103452324_client1|52=20230710-01:20:03.775|56=FXCM|98=0|108=30|553=chris|554=tradermade|10=189|
20230710-01:20:33.281667000 : 8=FIX.4.4|9=104|35=A|34=317|49=D103452324_client1|52=20230710-01:20:33.281|56=FXCM|98=0|108=30|553=chris|554=tradermade|10=186|
20230710-01:21:03.562486000 : 8=FIX.4.4|9=104|35=A|34=319|49=D103452324_client1|52=20230710-01:21:03.561|56=FXCM|98=0|108=30|553=chris|554=tradermade|10=187|
20230710-01:21:33.231602000 : 8=FIX.4.4|9=104|35=A|34=321|49=D103452324_client1|52=20230710-01:21:33.231|56=FXCM|98=0|108=30|553=chris|554=tradermade|10=177|
20230710-01:22:03.632765000 : 8=FIX.4.4|9=104|35=A|34=323|49=D103452324_client1|52=20230710-01:22:03.632|56=FXCM|98=0|108=30|553=chris|554=tradermade|10=182|
20230710-01:22:33.923337000 : 8=FIX.4.4|9=104|35=A|34=325|49=D103452324_client1|52=20230710-01:22:33.922|56=FXCM|98=0|108=30|553=chris|554=tradermade|10=189|
20230710-01:23:03.436655000 : 8=FIX.4.4|9=104|35=A|34=327|49=D103452324_client1|52=20230710-01:23:03.436|56=FXCM|98=0|108=30|553=chris|554=tradermade|10=189|
20230710-01:23:33.573452000 : 8=FIX.4.4|9=104|35=A|34=329|49=D103452324_client1|52=20230710-01:23:33.572|56=FXCM|98=0|108=30|553=chris|554=tradermade|10=195|
20230710-01:24:03.242899000 : 8=FIX.4.4|9=104|35=A|34=331|49=D103452324_client1|52=20230710-01:24:03.242|56=FXCM|98=0|108=30|553=chris|554=tradermade|10=180|
20230710-01:24:33.898684000 : 8=FIX.4.4|9=104|35=A|34=333|49=D103452324_client1|52=20230710-01:24:33.898|56=FXCM|98=0|108=30|553=chris|554=tradermade|10=202|
20230710-01:25:03.253370000 : 8=FIX.4.4|9=104|35=A|34=335|49=D103452324_client1|52=20230710-01:25:03.252|56=FXCM|98=0|108=30|553=chris|554=tradermade|10=186|
20230710-01:25:33.185838000 : 8=FIX.4.4|9=104|35=A|34=337|49=D103452324_client1|52=20230710-01:25:33.185|56=FXCM|98=0|108=30|553=chris|554=tradermade|10=196|
20230710-01:26:03.166925000 : 8=FIX.4.4|9=104|35=A|34=339|49=D103452324_client1|52=20230710-01:26:03.166|56=FXCM|98=0|108=30|553=chris|554=tradermade|10=195|
20230710-01:26:33.536716000 : 8=FIX.4.4|9=104|35=A|34=341|49=D103452324_client1|52=20230710-01:26:33.536|56=FXCM|98=0|108=30|553=chris|554=tradermade|10=192|
20230710-01:27:03.169707000 : 8=FIX.4.4|9=104|35=A|34=343|49=D103452324_client1|52=20230710-01:27:03.169|56=FXCM|98=0|108=30|553=chris|554=tradermade|10=194|
20230710-01:27:33.327653000 : 8=FIX.4.4|9=104|35=A|34=345|49=D103452324_client1|52=20230710-01:27:33.327|56=FXCM|98=0|108=30|553=chris|554=tradermade|10=195|
20230710-01:28:03.826595000 : 8=FIX.4.4|9=104|35=A|34=347|49=D103452324_client1|52=20230710-01:28:03.826|56=FXCM|98=0|108=30|553=chris|554=tradermade|10=199|
20230710-01:28:33.427412000 : 8=FIX.4.4|9=104|35=A|34=349|49=D103452324_client1|52=20230710-01:28:33.424|56=FXCM|98=0|108=30|553=chris|554=tradermade|10=198|
20230710-01:29:03.543627000 : 8=FIX.4.4|9=104|35=A|34=351|49=D103452324_client1|52=20230710-01:29:03.543|56=FXCM|98=0|108=30|553=chris|554=tradermade|10=191|
20230710-01:29:33.345888000 : 8=FIX.4.4|9=104|35=A|34=353|49=D103452324_client1|52=20230710-01:29:33.345|56=FXCM|98=0|108=30|553=chris|554=tradermade|10=196|
20230710-01:30:03.306351000 : 8=FIX.4.4|9=104|35=A|34=355|49=D103452324_client1|52=20230710-01:30:03.305|56=FXCM|98=0|108=30|553=chris|554=tradermade|10=183|
20230710-01:30:33.365277000 : 8=FIX.4.4|9=104|35=A|34=357|49=D103452324_client1|52=20230710-01:30:33.364|56=FXCM|98=0|108=30|553=chris|554=tradermade|10=193|
20230710-01:31:03.153342000 : 8=FIX.4.4|9=104|35=A|34=359|49=D103452324_client1|52=20230710-01:31:03.152|56=FXCM|98=0|108=30|553=chris|554=tradermade|10=188|
20230710-01:31:33.190318000 : 8=FIX.4.4|9=104|35=A|34=361|49=D103452324_client1|52=20230710-01:31:33.189|56=FXCM|98=0|108=30|553=chris|554=tradermade|10=194|
20230710-01:32:03.388967000 : 8=FIX.4.4|9=104|35=A|34=363|49=D103452324_client1|52=20230710-01:32:03.388|56=FXCM|98=0|108=30|553=chris|554=tradermade|10=195|
20230710-01:32:33.156304000 : 8=FIX.4.4|9=104|35=A|34=365|49=D103452324_client1|52=20230710-01:32:33.155|56=FXCM|98=0|108=30|553=chris|554=tradermade|10=192|
20230710-01:33:03.622111000 : 8=FIX.4.4|9=104|35=A|34=367|49=D103452324_client1|52=20230710-01:33:03.621|56=FXCM|98=0|108=30|553=chris|554=tradermade|10=190|
20230710-01:33:33.289708000 : 8=FIX.4.4|9=104|35=A|34=369|49=D103452324_client1|52=20230710-01:33:33.289|56=FXCM|98=0|108=30|553=chris|554=tradermade|10=205|
20230710-01:34:03.514285000 : 8=FIX.4.4|9=104|35=A|34=371|49=D103452324_client1|52=20230710-01:34:03.513|56=FXCM|98=0|108=30|553=chris|554=tradermade|10=186|
20230710-01:34:33.882061000 : 8=FIX.4.4|9=104|35=A|34=373|49=D103452324_client1|52=20230710-01:34:33.881|56=FXCM|98=0|108=30|553=chris|554=tradermade|10=199|
20230710-01:35:03.344387000 : 8=FIX.4.4|9=104|35=A|34=375|49=D103452324_client1|52=20230710-01:35:03.343|56=FXCM|98=0|108=30|553=chris|554=tradermade|10=192|
20230710-01:35:33.807947000 : 8=FIX.4.4|9=104|35=A|34=377|49=D103452324_client1|52=20230710-01:35:33.807|56=FXCM|98=0|108=30|553=chris|554=tradermade|10=202|
20230710-01:36:03.289661000 : 8=FIX.4.4|9=104|35=A|34=379|49=D103452324_client1|52=20230710-01:36:03.289|56=FXCM|98=0|108=30|553=chris|554=tradermade|10=206|
20230710-01:36:33.362732000 : 8=FIX.4.4|9=104|35=A|34=381|49=D103452324_client1|52=20230710-01:36:33.362|56=FXCM|98=0|108=30|553=chris|554=tradermade|10=194|
20230710-01:37:03.205082000 : 8=FIX.4.4|9=104|35=A|34=383|49=D103452324_client1|52=20230710-01:37:03.204|56=FXCM|98=0|108=30|553=chris|554=tradermade|10=189|
20230710-01:37:33.719573000 : 8=FIX.4.4|9=104|35=A|34=385|49=D103452324_client1|52=20230710-01:37:33.719|56=FXCM|98=0|108=30|553=chris|554=tradermade|10=205|
20230710-01:38:03.165143000 : 8=FIX.4.4|9=104|35=A|34=387|49=D103452324_client1|52=20230710-01:38:03.164|56=FXCM|98=0|108=30|553=chris|554=tradermade|10=199|
20230710-01:38:33.257690000 : 8=FIX.4.4|9=104|35=A|34=389|49=D103452324_client1|52=20230710-01:38:33.257|56=FXCM|98=0|108=30|553=chris|554=tradermade|10=207|
20230710-01:39:03.489463000 : 8=FIX.4.4|9=104|35=A|34=391|49=D103452324_client1|52=20230710-01:39:03.488|56=FXCM|98=0|108=30|553=chris|554=tradermade|10=204|
20230710-01:39:33.219010000 : 8=FIX.4.4|9=104|35=A|34=393|49=D103452324_client1|52=20230710-01:39:33.218|56=FXCM|98=0|108=30|553=chris|554=tradermade|10=200|
20230710-01:40:03.765020000 : 8=FIX.4.4|9=104|35=A|34=395|49=D103452324_client1|52=20230710-01:40:03.764|56=FXCM|98=0|108=30|553=chris|554=tradermade|10=197|
20230710-01:40:33.305590000 : 8=FIX.4.4|9=104|35=A|34=397|49=D103452324_client1|52=20230710-01:40:33.305|56=FXCM|98=0|108=30|553=chris|554=tradermade|10=193|
20230710-01:41:03.281595000 : 8=FIX.4.4|9=104|35=A|34=399|49=D103452324_client1|52=20230710-01:41:03.281|56=FXCM|98=0|108=30|553=chris|554=tradermade|10=196|
20230710-01:41:33.164245000 : 8=FIX.4.4|9=104|35=A|34=401|49=D103452324_client1|52=20230710-01:41:33.163|56=FXCM|98=0|108=30|553=chris|554=tradermade|10=182|
20230710-01:42:03.413111000 : 8=FIX.4.4|9=104|35=A|34=403|49=D103452324_client1|52=20230710-01:42:03.412|56=FXCM|98=0|108=30|553=chris|554=tradermade|10=179|
20230710-01:42:33.191154000 : 8=FIX.4.4|9=104|35=A|34=405|49=D103452324_client1|52=20230710-01:42:33.190|56=FXCM|98=0|108=30|553=chris|554=tradermade|10=187|
20230710-01:43:03.297121000 : 8=FIX.4.4|9=104|35=A|34=407|49=D103452324_client1|52=20230710-01:43:03.296|56=FXCM|98=0|108=30|553=chris|554=tradermade|10=194|
20230710-01:43:34.117211000 : 8=FIX.4.4|9=104|35=A|34=409|49=D103452324_client1|52=20230710-01:43:34.116|56=FXCM|98=0|108=30|553=chris|554=tradermade|10=191|
20230710-01:44:03.542576000 : 8=FIX.4.4|9=104|35=A|34=411|49=D103452324_client1|52=20230710-01:44:03.542|56=FXCM|98=0|108=30|553=chris|554=tradermade|10=184|
20230710-01:44:33.980708000 : 8=FIX.4.4|9=104|35=A|34=413|49=D103452324_client1|52=20230710-01:44:33.980|56=FXCM|98=0|108=30|553=chris|554=tradermade|10=195|
20230710-01:45:03.329251000 : 8=FIX.4.4|9=104|35=A|34=415|49=D103452324_client1|52=20230710-01:45:03.328|56=FXCM|98=0|108=30|553=chris|554=tradermade|10=191|
20230710-01:45:33.442490000 : 8=FIX.4.4|9=104|35=A|34=417|49=D103452324_client1|52=20230710-01:45:33.441|56=FXCM|98=0|108=30|553=chris|554=tradermade|10=192|
20230710-01:46:03.219548000 : 8=FIX.4.4|9=104|35=A|34=419|49=D103452324_client1|52=20230710-01:46:03.217|56=FXCM|98=0|108=30|553=chris|554=tradermade|10=193|
20230710-01:46:33.670476000 : 8=FIX.4.4|9=104|35=A|34=421|49=D103452324_client1|52=20230710-01:46:33.669|56=FXCM|98=0|108=30|553=chris|554=tradermade|10=200|
20230710-01:47:03.201127000 : 8=FIX.4.4|9=104|35=A|34=423|49=D103452324_client1|52=20230710-01:47:03.200|56=FXCM|98=0|108=30|553=chris|554=tradermade|10=181|
20230710-01:47:33.321730000 : 8=FIX.4.4|9=104|35=A|34=425|49=D103452324_client1|52=20230710-01:47:33.321|56=FXCM|98=0|108=30|553=chris|554=tradermade|10=190|
20230710-01:48:03.490467000 : 8=FIX.4.4|9=104|35=A|34=427|49=D103452324_client1|52=20230710-01:48:03.489|56=FXCM|98=0|108=30|553=chris|554=tradermade|10=205|
20230710-01:48:33.309868000 : 8=FIX.4.4|9=104|35=A|34=429|49=D103452324_client1|52=20230710-01:48:33.309|56=FXCM|98=0|108=30|553=chris|554=tradermade|10=201|
20230710-01:49:03.467738000 : 8=FIX.4.4|9=104|35=A|34=431|49=D103452324_client1|52=20230710-01:49:03.467|56=FXCM|98=0|108=30|553=chris|554=tradermade|10=197|
20230710-01:49:33.171786000 : 8=FIX.4.4|9=104|35=A|34=433|49=D103452324_client1|52=20230710-01:49:33.171|56=FXCM|98=0|108=30|553=chris|554=tradermade|10=194|
20230710-01:50:03.515180000 : 8=FIX.4.4|9=104|35=A|34=435|49=D103452324_client1|52=20230710-01:50:03.514|56=FXCM|98=0|108=30|553=chris|554=tradermade|10=186|
20230710-01:50:33.354548000 : 8=FIX.4.4|9=104|35=A|34=437|49=D103452324_client1|52=20230710-01:50:33.354|56=FXCM|98=0|108=30|553=chris|554=tradermade|10=193|
20230710-01:51:03.365896000 : 8=FIX.4.4|9=104|35=A|34=439|49=D103452324_client1|52=20230710-01:51:03.365|56=FXCM|98=0|108=30|553=chris|554=tradermade|10=195|
20230710-01:51:33.170230000 : 8=FIX.4.4|9=104|35=A|34=441|49=D103452324_client1|52=20230710-01:51:33.169|56=FXCM|98=0|108=30|553=chris|554=tradermade|10=193|
20230710-01:52:03.160924000 : 8=FIX.4.4|9=104|35=A|34=443|49=D103452324_client1|52=20230710-01:52:03.160|56=FXCM|98=0|108=30|553=chris|554=tradermade|10=184|
20230710-01:52:33.166970000 : 8=FIX.4.4|9=104|35=A|34=445|49=D103452324_client1|52=20230710-01:52:33.166|56=FXCM|98=0|108=30|553=chris|554=tradermade|10=195|
20230710-01:53:03.571759000 : 8=FIX.4.4|9=104|35=A|34=447|49=D103452324_client1|52=20230710-01:53:03.571|56=FXCM|98=0|108=30|553=chris|554=tradermade|10=195|
20230710-01:53:33.681444000 : 8=FIX.4.4|9=104|35=A|34=449|49=D103452324_client1|52=20230710-01:53:33.680|56=FXCM|98=0|108=30|553=chris|554=tradermade|10=201|
20230710-01:54:03.547035000 : 8=FIX.4.4|9=104|35=A|34=451|49=D103452324_client1|52=20230710-01:54:03.546|56=FXCM|98=0|108=30|553=chris|554=tradermade|10=193|
20230710-01:54:33.553586000 : 8=FIX.4.4|9=104|35=A|34=453|49=D103452324_client1|52=20230710-01:54:33.553|56=FXCM|98=0|108=30|553=chris|554=tradermade|10=196|
20230710-01:55:03.415161000 : 8=FIX.4.4|9=104|35=A|34=455|49=D103452324_client1|52=20230710-01:55:03.414|56=FXCM|98=0|108=30|553=chris|554=tradermade|10=192|
20230710-01:55:33.340844000 : 8=FIX.4.4|9=104|35=A|34=457|49=D103452324_client1|52=20230710-01:55:33.340|56=FXCM|98=0|108=30|553=chris|554=tradermade|10=195|
20230710-01:56:03.360916000 : 8=FIX.4.4|9=104|35=A|34=459|49=D103452324_client1|52=20230710-01:56:03.360|56=FXCM|98=0|108=30|553=chris|554=tradermade|10=197|
20230710-01:56:33.626459000 : 8=FIX.4.4|9=104|35=A|34=461|49=D103452324_client1|52=20230710-01:56:33.625|56=FXCM|98=0|108=30|553=chris|554=tradermade|10=197|
20230710-01:57:03.223889000 : 8=FIX.4.4|9=104|35=A|34=463|49=D103452324_client1|52=20230710-01:57:03.222|56=FXCM|98=0|108=30|553=chris|554=tradermade|10=190|
20230710-01:57:33.169443000 : 8=FIX.4.4|9=104|35=A|34=465|49=D103452324_client1|52=20230710-01:57:33.168|56=FXCM|98=0|108=30|553=chris|554=tradermade|10=204|
20230710-01:58:03.549357000 : 8=FIX.4.4|9=104|35=A|34=467|49=D103452324_client1|52=20230710-01:58:03.548|56=FXCM|98=0|108=30|553=chris|554=tradermade|10=206|
20230710-01:58:33.497895000 : 8=FIX.4.4|9=104|35=A|34=469|49=D103452324_client1|52=20230710-01:58:33.497|56=FXCM|98=0|108=30|553=chris|554=tradermade|10=214|
20230710-01:59:03.870558000 : 8=FIX.4.4|9=104|35=A|34=471|49=D103452324_client1|52=20230710-01:59:03.869|56=FXCM|98=0|108=30|553=chris|554=tradermade|10=208|
20230710-01:59:33.519077000 : 8=FIX.4.4|9=104|35=A|34=473|49=D103452324_client1|52=20230710-01:59:33.518|56=FXCM|98=0|108=30|553=chris|554=tradermade|10=204|
20230710-02:00:03.278843000 : 8=FIX.4.4|9=104|35=A|34=475|49=D103452324_client1|52=20230710-02:00:03.278|56=FXCM|98=0|108=30|553=chris|554=tradermade|10=193|
20230710-02:00:33.258376000 : 8=FIX.4.4|9=104|35=A|34=477|49=D103452324_client1|52=20230710-02:00:33.257|56=FXCM|98=0|108=30|553=chris|554=tradermade|10=195|
20230710-02:01:03.769100000 : 8=FIX.4.4|9=104|35=A|34=479|49=D103452324_client1|52=20230710-02:01:03.768|56=FXCM|98=0|108=30|553=chris|554=tradermade|10=202|
20230710-02:01:33.277926000 : 8=FIX.4.4|9=104|35=A|34=481|49=D103452324_client1|52=20230710-02:01:33.277|56=FXCM|98=0|108=30|553=chris|554=tradermade|10=193|
20230710-02:02:03.633627000 : 8=FIX.4.4|9=104|35=A|34=483|49=D103452324_client1|52=20230710-02:02:03.633|56=FXCM|98=0|108=30|553=chris|554=tradermade|10=189|
20230710-02:02:33.156267000 : 8=FIX.4.4|9=104|35=A|34=485|49=D103452324_client1|52=20230710-02:02:33.155|56=FXCM|98=0|108=30|553=chris|554=tradermade|10=193|
20230710-02:03:03.281959000 : 8=FIX.4.4|9=104|35=A|34=487|49=D103452324_client1|52=20230710-02:03:03.281|56=FXCM|98=0|108=30|553=chris|554=tradermade|10=193|
20230710-02:03:33.257939000 : 8=FIX.4.4|9=104|35=A|34=489|49=D103452324_client1|52=20230710-02:03:33.257|56=FXCM|98=0|108=30|553=chris|554=tradermade|10=201|
20230710-02:04:03.355234000 : 8=FIX.4.4|9=104|35=A|34=491|49=D103452324_client1|52=20230710-02:04:03.354|56=FXCM|98=0|108=30|553=chris|554=tradermade|10=190|
20230710-02:04:33.483045000 : 8=FIX.4.4|9=104|35=A|34=493|49=D103452324_client1|52=20230710-02:04:33.482|56=FXCM|98=0|108=30|553=chris|554=tradermade|10=197|
20230710-02:05:03.198464000 : 8=FIX.4.4|9=104|35=A|34=495|49=D103452324_client1|52=20230710-02:05:03.197|56=FXCM|98=0|108=30|553=chris|554=tradermade|10=200|
20230710-02:05:33.525309000 : 8=FIX.4.4|9=104|35=A|34=497|49=D103452324_client1|52=20230710-02:05:33.524|56=FXCM|98=0|108=30|553=chris|554=tradermade|10=199|
20230710-02:06:03.217947000 : 8=FIX.4.4|9=104|35=A|34=499|49=D103452324_client1|52=20230710-02:06:03.217|56=FXCM|98=0|108=30|553=chris|554=tradermade|10=198|
20230710-02:06:33.289304000 : 8=FIX.4.4|9=104|35=A|34=501|49=D103452324_client1|52=20230710-02:06:33.288|56=FXCM|98=0|108=30|553=chris|554=tradermade|10=193|
20230710-02:07:03.221592000 : 8=FIX.4.4|9=104|35=A|34=503|49=D103452324_client1|52=20230710-02:07:03.221|56=FXCM|98=0|108=30|553=chris|554=tradermade|10=180|
20230710-02:07:33.430569000 : 8=FIX.4.4|9=104|35=A|34=505|49=D103452324_client1|52=20230710-02:07:33.430|56=FXCM|98=0|108=30|553=chris|554=tradermade|10=187|
20230710-02:08:03.170765000 : 8=FIX.4.4|9=104|35=A|34=507|49=D103452324_client1|52=20230710-02:08:03.170|56=FXCM|98=0|108=30|553=chris|554=tradermade|10=188|
20230710-02:08:33.530551000 : 8=FIX.4.4|9=104|35=A|34=509|49=D103452324_client1|52=20230710-02:08:33.529|56=FXCM|98=0|108=30|553=chris|554=tradermade|10=201|
20230710-15:35:48.414569000 : 8=FIX.4.4|9=104|35=A|34=511|49=D103452324_client1|52=20230710-15:35:48.414|56=FXCM|98=0|108=30|553=chris|554=tradermade|10=197|
20230710-15:36:18.393655000 : 8=FIX.4.4|9=104|35=A|34=513|49=D103452324_client1|52=20230710-15:36:18.393|56=FXCM|98=0|108=30|553=chris|554=tradermade|10=203|
20230710-15:36:48.153944000 : 8=FIX.4.4|9=104|35=A|34=515|49=D103452324_client1|52=20230710-15:36:48.153|56=FXCM|98=0|108=30|553=chris|554=tradermade|10=202|
20230710-15:37:18.180785000 : 8=FIX.4.4|9=104|35=A|34=517|49=D103452324_client1|52=20230710-15:37:18.180|56=FXCM|98=0|108=30|553=chris|554=tradermade|10=202|
20230710-15:37:48.580791000 : 8=FIX.4.4|9=104|35=A|34=519|49=D103452324_client1|52=20230710-15:37:48.580|56=FXCM|98=0|108=30|553=chris|554=tradermade|10=211|
20230710-15:38:18.307009000 : 8=FIX.4.4|9=104|35=A|34=521|49=D103452324_client1|52=20230710-15:38:18.306|56=FXCM|98=0|108=30|553=chris|554=tradermade|10=198|
20230710-15:38:48.990340000 : 8=FIX.4.4|9=104|35=A|34=523|49=D103452324_client1|52=20230710-15:38:48.989|56=FXCM|98=0|108=30|553=chris|554=tradermade|10=220|
20230710-15:39:18.311024000 : 8=FIX.4.4|9=104|35=A|34=525|49=D103452324_client1|52=20230710-15:39:18.308|56=FXCM|98=0|108=30|553=chris|554=tradermade|10=205|
20230710-15:39:48.535037000 : 8=FIX.4.4|9=104|35=A|34=527|49=D103452324_client1|52=20230710-15:39:48.534|56=FXCM|98=0|108=30|553=chris|554=tradermade|10=211|
20230710-15:40:18.314661000 : 8=FIX.4.4|9=104|35=A|34=529|49=D103452324_client1|52=20230710-15:40:18.314|56=FXCM|98=0|108=30|553=chris|554=tradermade|10=198|
20230710-15:40:48.519826000 : 8=FIX.4.4|9=104|35=A|34=531|49=D103452324_client1|52=20230710-15:40:48.519|56=FXCM|98=0|108=30|553=chris|554=tradermade|10=201|
20230710-15:41:18.161005000 : 8=FIX.4.4|9=104|35=A|34=533|49=D103452324_client1|52=20230710-15:41:18.160|56=FXCM|98=0|108=30|553=chris|554=tradermade|10=193|
20230710-15:41:48.458033000 : 8=FIX.4.4|9=104|35=A|34=535|49=D103452324_client1|52=20230710-15:41:48.457|56=FXCM|98=0|108=30|553=chris|554=tradermade|10=207|
20230710-15:42:18.862101000 : 8=FIX.4.4|9=104|35=A|34=537|49=D103452324_client1|52=20230710-15:42:18.861|56=FXCM|98=0|108=30|553=chris|554=tradermade|10=206|
20230710-15:42:48.319535000 : 8=FIX.4.4|9=104|35=A|34=539|49=D103452324_client1|52=20230710-15:42:48.318|56=FXCM|98=0|108=30|553=chris|554=tradermade|10=208|
20230710-15:43:18.398862000 : 8=FIX.4.4|9=104|35=A|34=541|49=D103452324_client1|52=20230710-15:43:18.398|56=FXCM|98=0|108=30|553=chris|554=tradermade|10=207|
20230710-15:43:48.295149000 : 8=FIX.4.4|9=104|35=A|34=543|49=D103452324_client1|52=20230710-15:43:48.294|56=FXCM|98=0|108=30|553=chris|554=tradermade|10=207|
20230710-15:44:18.667585000 : 8=FIX.4.4|9=104|35=A|34=545|49=D103452324_client1|52=20230710-15:44:18.667|56=FXCM|98=0|108=30|553=chris|554=tradermade|10=211|
20230710-15:44:48.247052000 : 8=FIX.4.4|9=104|35=A|34=547|49=D103452324_client1|52=20230710-15:44:48.246|56=FXCM|98=0|108=30|553=chris|554=tradermade|10=209|
20230710-15:45:18.349956000 : 8=FIX.4.4|9=104|35=A|34=549|49=D103452324_client1|52=20230710-15:45:18.349|56=FXCM|98=0|108=30|553=chris|554=tradermade|10=213|
20230710-15:45:48.194512000 : 8=FIX.4.4|9=104|35=A|34=551|49=D103452324_client1|52=20230710-15:45:48.193|56=FXCM|98=0|108=30|553=chris|554=tradermade|10=206|
20230710-15:46:18.395296000 : 8=FIX.4.4|9=104|35=A|34=553|49=D103452324_client1|52=20230710-15:46:18.394|56=FXCM|98=0|108=30|553=chris|554=tradermade|10=209|
20230710-15:46:48.350343000 : 8=FIX.4.4|9=104|35=A|34=555|49=D103452324_client1|52=20230710-15:46:48.349|56=FXCM|98=0|108=30|553=chris|554=tradermade|10=214|
20230710-15:47:18.178457000 : 8=FIX.4.4|9=104|35=A|34=557|49=D103452324_client1|52=20230710-15:47:18.177|56=FXCM|98=0|108=30|553=chris|554=tradermade|10=213|
20230710-15:47:48.528280000 : 8=FIX.4.4|9=104|35=A|34=559|49=D103452324_client1|52=20230710-15:47:48.527|56=FXCM|98=0|108=30|553=chris|554=tradermade|10=217|
20230710-15:57:56.210229000 : 8=FIX.4.4|9=104|35=A|34=560|49=D103452324_client1|52=20230710-15:57:56.209|56=FXCM|98=0|108=30|553=chris|554=tradermade|10=206|
20230710-15:58:26.990101000 : 8=FIX.4.4|9=104|35=A|34=562|49=D103452324_client1|52=20230710-15:58:26.989|56=FXCM|98=0|108=30|553=chris|554=tradermade|10=221|
20230710-15:58:56.461093000 : 8=FIX.4.4|9=104|35=A|34=564|49=D103452324_client1|52=20230710-15:58:56.460|56=FXCM|98=0|108=30|553=chris|554=tradermade|10=210|
20230710-16:00:10.786778000 : 8=FIX.4.4|9=104|35=A|34=566|49=D103452324_client1|52=20230710-16:00:10.785|56=FXCM|98=0|108=30|553=chris|554=tradermade|10=200|
20230710-16:00:40.303100000 : 8=FIX.4.4|9=104|35=A|34=568|49=D103452324_client1|52=20230710-16:00:40.302|56=FXCM|98=0|108=30|553=chris|554=tradermade|10=190|
20230710-16:01:10.653596000 : 8=FIX.4.4|9=104|35=A|34=570|49=D103452324_client1|52=20230710-16:01:10.652|56=FXCM|98=0|108=30|553=chris|554=tradermade|10=189|
20230710-16:01:40.192366000 : 8=FIX.4.4|9=104|35=A|34=572|49=D103452324_client1|52=20230710-16:01:40.191|56=FXCM|98=0|108=30|553=chris|554=tradermade|10=192|
20230710-16:02:10.664392000 : 8=FIX.4.4|9=104|35=A|34=574|49=D103452324_client1|52=20230710-16:02:10.663|56=FXCM|98=0|108=30|553=chris|554=tradermade|10=196|
20230710-16:08:11.735605000 : 8=FIX.4.4|9=104|35=A|34=576|49=D103452324_client1|52=20230710-16:08:11.734|56=FXCM|98=0|108=30|553=chris|554=tradermade|10=204|
20230710-16:13:55.220199000 : 8=FIX.4.4|9=104|35=A|34=578|49=D103452324_client1|52=20230710-16:13:55.219|56=FXCM|98=0|108=30|553=chris|554=tradermade|10=208|
20230710-16:16:54.086246000 : 8=FIX.4.4|9=104|35=A|34=580|49=D103452324_client1|52=20230710-16:16:54.085|56=FXCM|98=0|108=30|553=chris|554=tradermade|10=204|
20230710-16:20:06.595683000 : 8=FIX.4.4|9=104|35=A|34=581|49=D103452324_client1|52=20230710-16:20:06.595|56=FXCM|98=0|108=30|553=chris|554=tradermade|10=203|
20230710-16:20:57.568702000 : 8=FIX.4.4|9=104|35=A|34=582|49=D103452324_client1|52=20230710-16:20:57.567|56=FXCM|98=0|108=30|553=chris|554=tradermade|10=209|
20230710-16:25:28.094416000 : 8=FIX.4.4|9=104|35=A|34=584|49=D103452324_client1|52=20230710-16:25:28.093|56=FXCM|98=0|108=30|553=chris|554=tradermade|10=208|
20230710-16:27:46.393117000 : 8=FIX.4.4|9=104|35=A|34=585|49=D103452324_client1|52=20230710-16:27:46.392|56=FXCM|98=0|108=30|553=chris|554=tradermade|10=213|
20230710-16:35:21.863921000 : 8=FIX.4.4|9=104|35=A|34=586|49=D103452324_client1|52=20230710-16:35:21.863|56=FXCM|98=0|108=30|553=chris|554=tradermade|10=209|
20230710-16:35:51.179179000 : 8=FIX.4.4|9=104|35=A|34=589|49=D103452324_client1|52=20230710-16:35:51.178|56=FXCM|98=0|108=30|553=chris|554=tradermade|10=214|
20230710-16:39:10.293799000 : 8=FIX.4.4|9=104|35=A|34=591|49=D103452324_client1|52=20230710-16:39:10.293|56=FXCM|98=0|108=30|553=chris|554=tradermade|10=204|
20230710-16:40:13.442451000 : 8=FIX.4.4|9=104|35=A|34=592|49=D103452324_client1|52=20230710-16:40:13.441|56=FXCM|98=0|108=30|553=chris|554=tradermade|10=195|
20230710-16:40:43.742385000 : 8=FIX.4.4|9=104|35=A|34=594|49=D103452324_client1|52=20230710-16:40:43.741|56=FXCM|98=0|108=30|553=chris|554=tradermade|10=203|
20230710-16:41:13.596373000 : 8=FIX.4.4|9=104|35=A|34=596|49=D103452324_client1|52=20230710-16:41:13.595|56=FXCM|98=0|108=30|553=chris|554=tradermade|10=210|
20230710-16:43:11.534170000 : 8=FIX.4.4|9=104|35=A|34=599|49=D103452324_client1|52=20230710-16:43:11.533|56=FXCM|98=0|108=30|553=chris|554=tradermade|10=205|
20230710-16:43:25.867118000 : 8=FIX.4.4|9=104|35=A|34=600|49=D103452324_client1|52=20230710-16:43:25.866|56=FXCM|98=0|108=30|553=chris|554=tradermade|10=202|
20230710-16:44:27.985052000 : 8=FIX.4.4|9=104|35=A|34=601|49=D103452324_client1|52=20230710-16:44:27.984|56=FXCM|98=0|108=30|553=chris|554=tradermade|10=207|
20230710-17:08:40.764472000 : 8=FIX.4.4|9=104|35=A|34=604|49=D103452324_client1|52=20230710-17:08:40.763|56=FXCM|98=0|108=30|553=chris|554=tradermade|10=201|
20230710-17:09:10.554935000 : 8=FIX.4.4|9=104|35=A|34=606|49=D103452324_client1|52=20230710-17:09:10.554|56=FXCM|98=0|108=30|553=chris|554=tradermade|10=199|
20230710-17:10:49.518043000 : 8=FIX.4.4|9=104|35=A|34=607|49=D103452324_client1|52=20230710-17:10:49.516|56=FXCM|98=0|108=30|553=chris|554=tradermade|10=202|
20230710-17:11:04.311274000 : 8=FIX.4.4|9=104|35=A|34=609|49=D103452324_client1|52=20230710-17:11:04.310|56=FXCM|98=0|108=30|553=chris|554=tradermade|10=188|
20230710-17:11:19.333395000 : 8=FIX.4.4|9=104|35=A|34=611|49=D103452324_client1|52=20230710-17:11:19.332|56=FXCM|98=0|108=30|553=chris|554=tradermade|10=191|
20230710-17:18:22.860028000 : 8=FIX.4.4|9=104|35=A|34=613|49=D103452324_client1|52=20230710-17:18:22.859|56=FXCM|98=0|108=30|553=chris|554=tradermade|10=208|
20230710-17:27:15.199015000 : 8=FIX.4.4|9=104|35=A|34=614|49=D103452324_client1|52=20230710-17:27:15.198|56=FXCM|98=0|108=30|553=chris|554=tradermade|10=207|
20230710-17:27:33.934957000 : 8=FIX.4.4|9=104|35=A|34=616|49=D103452324_client1|52=20230710-17:27:33.934|56=FXCM|98=0|108=30|553=chris|554=tradermade|10=207|
20230710-17:27:45.217493000 : 8=FIX.4.4|9=104|35=A|34=618|49=D103452324_client1|52=20230710-17:27:45.216|56=FXCM|98=0|108=30|553=chris|554=tradermade|10=205|
20230710-17:36:07.277276000 : 8=FIX.4.4|9=104|35=A|34=619|49=D103452324_client1|52=20230710-17:36:07.276|56=FXCM|98=0|108=30|553=chris|554=tradermade|10=210|
20230710-17:47:22.947698000 : 8=FIX.4.4|9=104|35=A|34=622|49=D103452324_client1|52=20230710-17:47:22.946|56=FXCM|98=0|108=30|553=chris|554=tradermade|10=207|
20230710-17:47:52.362855000 : 8=FIX.4.4|9=104|35=A|34=624|49=D103452324_client1|52=20230710-17:47:52.362|56=FXCM|98=0|108=30|553=chris|554=tradermade|10=204|
20230710-17:49:28.891642000 : 8=FIX.4.4|9=104|35=A|34=625|49=D103452324_client1|52=20230710-17:49:28.890|56=FXCM|98=0|108=30|553=chris|554=tradermade|10=216|
20230710-17:50:56.592453000 : 8=FIX.4.4|9=104|35=A|34=628|49=D103452324_client1|52=20230710-17:50:56.591|56=FXCM|98=0|108=30|553=chris|554=tradermade|10=210|
20230710-17:51:04.379485000 : 8=FIX.4.4|9=104|35=A|34=629|49=D103452324_client1|52=20230710-17:51:04.378|56=FXCM|98=0|108=30|553=chris|554=tradermade|10=208|
20230710-17:52:49.643999000 : 8=FIX.4.4|9=104|35=A|34=630|49=D103452324_client1|52=20230710-17:52:49.643|56=FXCM|98=0|108=30|553=chris|554=tradermade|10=205|
20230710-17:53:44.419136000 : 8=FIX.4.4|9=104|35=A|34=631|49=D103452324_client1|52=20230710-17:53:44.418|56=FXCM|98=0|108=30|553=chris|554=tradermade|10=202|
20230710-20:52:15.168025000 : 8=FIX.4.4|9=104|35=A|34=634|49=D103452324_client1|52=20230710-20:52:15.167|56=FXCM|98=0|108=30|553=chris|554=tradermade|10=197|
20230710-20:58:16.400132000 : 8=FIX.4.4|9=104|35=A|34=636|49=D103452324_client1|52=20230710-20:58:16.399|56=FXCM|98=0|108=30|553=chris|554=tradermade|10=213|
20230710-20:58:19.805177000 : 8=FIX.4.4|9=104|35=A|34=637|49=D103452324_client1|52=20230710-20:58:19.804|56=FXCM|98=0|108=30|553=chris|554=tradermade|10=208|
20230710-21:00:51.300961000 : 8=FIX.4.4|9=104|35=A|34=638|49=D103452324_client1|52=20230710-21:00:51.300|56=FXCM|98=0|108=30|553=chris|554=tradermade|10=184|
20230710-21:02:06.868718000 : 8=FIX.4.4|9=104|35=A|34=641|49=D103452324_client1|52=20230710-21:02:06.868|56=FXCM|98=0|108=30|553=chris|554=tradermade|10=199|
20230710-21:02:28.199311000 : 8=FIX.4.4|9=104|35=A|34=643|49=D103452324_client1|52=20230710-21:02:28.198|56=FXCM|98=0|108=30|553=chris|554=tradermade|10=201|
20230710-21:11:37.620170000 : 8=FIX.4.4|9=104|35=A|34=644|49=D103452324_client1|52=20230710-21:11:37.619|56=FXCM|98=0|108=30|553=chris|554=tradermade|10=200|
20230710-21:14:08.791567000 : 8=FIX.4.4|9=104|35=A|34=647|49=D103452324_client1|52=20230710-21:14:08.790|56=FXCM|98=0|108=30|553=chris|554=tradermade|10=204|
20230710-21:15:21.438691000 : 8=FIX.4.4|9=104|35=A|34=649|49=D103452324_client1|52=20230710-21:15:21.437|56=FXCM|98=0|108=30|553=chris|554=tradermade|10=200|
20230710-21:16:16.897288000 : 8=FIX.4.4|9=104|35=A|34=651|49=D103452324_client1|52=20230710-21:16:16.896|56=FXCM|98=0|108=30|553=chris|554=tradermade|10=207|
20230710-21:18:35.450674000 : 8=FIX.4.4|9=104|35=A|34=653|49=D103452324_client1|52=20230710-21:18:35.450|56=FXCM|98=0|108=30|553=chris|554=tradermade|10=198|
20230710-21:19:05.855089000 : 8=FIX.4.4|9=104|35=A|34=657|49=D103452324_client1|52=20230710-21:19:05.854|56=FXCM|98=0|108=30|553=chris|554=tradermade|10=208|
20230710-21:19:57.972683000 : 8=FIX.4.4|9=104|35=A|34=660|49=D103452324_client1|52=20230710-21:19:57.972|56=FXCM|98=0|108=30|553=chris|554=tradermade|10=210|
20230710-21:20:27.272290000 : 8=FIX.4.4|9=104|35=A|34=663|49=D103452324_client1|52=20230710-21:20:27.271|56=FXCM|98=0|108=30|553=chris|554=tradermade|10=194|
20230710-21:20:57.560425000 : 8=FIX.4.4|9=104|35=A|34=666|49=D103452324_client1|52=20230710-21:20:57.559|56=FXCM|98=0|108=30|553=chris|554=tradermade|10=209|
20230710-21:30:57.294014000 : 8=FIX.4.4|9=104|35=A|34=668|49=D103452324_client1|52=20230710-21:30:57.293|56=FXCM|98=0|108=30|553=chris|554=tradermade|10=207|
20230710-21:31:33.509608000 : 8=FIX.4.4|9=104|35=A|34=670|49=D103452324_client1|52=20230710-21:31:33.508|56=FXCM|98=0|108=30|553=chris|554=tradermade|10=194|
20230710-21:32:03.828887000 : 8=FIX.4.4|9=104|35=A|34=672|49=D103452324_client1|52=20230710-21:32:03.828|56=FXCM|98=0|108=30|553=chris|554=tradermade|10=199|
20230710-21:32:33.871962000 : 8=FIX.4.4|9=104|35=A|34=674|49=D103452324_client1|52=20230710-21:32:33.871|56=FXCM|98=0|108=30|553=chris|554=tradermade|10=202|
20230710-21:32:47.335273000 : 8=FIX.4.4|9=104|35=A|34=675|49=D103452324_client1|52=20230710-21:32:47.334|56=FXCM|98=0|108=30|553=chris|554=tradermade|10=202|
20230710-21:33:17.652976000 : 8=FIX.4.4|9=104|35=A|34=677|49=D103452324_client1|52=20230710-21:33:17.652|56=FXCM|98=0|108=30|553=chris|554=tradermade|10=205|
20230710-21:33:27.584309000 : 8=FIX.4.4|9=104|35=A|34=678|49=D103452324_client1|52=20230710-21:33:27.583|56=FXCM|98=0|108=30|553=chris|554=tradermade|10=210|
20230710-21:33:57.598726000 : 8=FIX.4.4|9=104|35=A|34=680|49=D103452324_client1|52=20230710-21:33:57.598|56=FXCM|98=0|108=30|553=chris|554=tradermade|10=212|
20230710-21:34:27.185119000 : 8=FIX.4.4|9=104|35=A|34=682|49=D103452324_client1|52=20230710-21:34:27.184|56=FXCM|98=0|108=30|553=chris|554=tradermade|10=203|
20230710-21:34:57.232327000 : 8=FIX.4.4|9=104|35=A|34=685|49=D103452324_client1|52=20230710-21:34:57.231|56=FXCM|98=0|108=30|553=chris|554=tradermade|10=202|
20230710-21:40:28.618205000 : 8=FIX.4.4|9=104|35=A|34=687|49=D103452324_client1|52=20230710-21:40:28.617|56=FXCM|98=0|108=30|553=chris|554=tradermade|10=207|
20230710-21:40:58.509799000 : 8=FIX.4.4|9=104|35=A|34=689|49=D103452324_client1|52=20230710-21:40:58.509|56=FXCM|98=0|108=30|553=chris|554=tradermade|10=212|
20230710-21:41:28.701322000 : 8=FIX.4.4|9=104|35=A|34=692|49=D103452324_client1|52=20230710-21:41:28.700|56=FXCM|98=0|108=30|553=chris|554=tradermade|10=197|
20230710-21:42:11.093802000 : 8=FIX.4.4|9=104|35=A|34=694|49=D103452324_client1|52=20230710-21:42:11.093|56=FXCM|98=0|108=30|553=chris|554=tradermade|10=197|
20230710-21:42:41.740048000 : 8=FIX.4.4|9=104|35=A|34=697|49=D103452324_client1|52=20230710-21:42:41.739|56=FXCM|98=0|108=30|553=chris|554=tradermade|10=210|
20230710-21:43:30.239905000 : 8=FIX.4.4|9=104|35=A|34=699|49=D103452324_client1|52=20230710-21:43:30.239|56=FXCM|98=0|108=30|553=chris|554=tradermade|10=206|
20230710-21:44:00.190351000 : 8=FIX.4.4|9=104|35=A|34=702|49=D103452324_client1|52=20230710-21:44:00.189|56=FXCM|98=0|108=30|553=chris|554=tradermade|10=193|
20230710-21:44:30.966651000 : 8=FIX.4.4|9=104|35=A|34=704|49=D103452324_client1|52=20230710-21:44:30.966|56=FXCM|98=0|108=30|553=chris|554=tradermade|10=201|
20230710-21:45:32.525863000 : 8=FIX.4.4|9=104|35=A|34=706|49=D103452324_client1|52=20230710-21:45:32.525|56=FXCM|98=0|108=30|553=chris|554=tradermade|10=197|
20230710-21:46:02.335514000 : 8=FIX.4.4|9=104|35=A|34=709|49=D103452324_client1|52=20230710-21:46:02.334|56=FXCM|98=0|108=30|553=chris|554=tradermade|10=196|
20230710-21:46:51.550654000 : 8=FIX.4.4|9=104|35=A|34=711|49=D103452324_client1|52=20230710-21:46:51.550|56=FXCM|98=0|108=30|553=chris|554=tradermade|10=193|
20230710-21:47:21.180081000 : 8=FIX.4.4|9=104|35=A|34=714|49=D103452324_client1|52=20230710-21:47:21.179|56=FXCM|98=0|108=30|553=chris|554=tradermade|10=201|
20230710-21:47:51.239221000 : 8=FIX.4.4|9=104|35=A|34=716|49=D103452324_client1|52=20230710-21:47:51.238|56=FXCM|98=0|108=30|553=chris|554=tradermade|10=202|
20230710-21:48:21.267990000 : 8=FIX.4.4|9=104|35=A|34=718|49=D103452324_client1|52=20230710-21:48:21.267|56=FXCM|98=0|108=30|553=chris|554=tradermade|10=204|
20230710-21:48:51.931177000 : 8=FIX.4.4|9=104|35=A|34=720|49=D103452324_client1|52=20230710-21:48:51.930|56=FXCM|98=0|108=30|553=chris|554=tradermade|10=197|
20230710-21:49:41.267082000 : 8=FIX.4.4|9=104|35=A|34=722|49=D103452324_client1|52=20230710-21:49:41.266|56=FXCM|98=0|108=30|553=chris|554=tradermade|10=201|
20230710-21:50:11.154521000 : 8=FIX.4.4|9=104|35=A|34=724|49=D103452324_client1|52=20230710-21:50:11.153|56=FXCM|98=0|108=30|553=chris|554=tradermade|10=187|
20230710-21:50:48.210938000 : 8=FIX.4.4|9=104|35=A|34=727|49=D103452324_client1|52=20230710-21:50:48.210|56=FXCM|98=0|108=30|553=chris|554=tradermade|10=194|
20230710-21:51:18.259219000 : 8=FIX.4.4|9=104|35=A|34=730|49=D103452324_client1|52=20230710-21:51:18.258|56=FXCM|98=0|108=30|553=chris|554=tradermade|10=198|
20230710-21:51:48.455905000 : 8=FIX.4.4|9=104|35=A|34=733|49=D103452324_client1|52=20230710-21:51:48.455|56=FXCM|98=0|108=30|553=chris|554=tradermade|10=203|
20230710-21:52:24.765110000 : 8=FIX.4.4|9=104|35=A|34=735|49=D103452324_client1|52=20230710-21:52:24.764|56=FXCM|98=0|108=30|553=chris|554=tradermade|10=203|
20230710-21:54:20.478355000 : 8=FIX.4.4|9=104|35=A|34=737|49=D103452324_client1|52=20230710-21:54:20.477|56=FXCM|98=0|108=30|553=chris|554=tradermade|10=204|
20230710-21:54:50.405866000 : 8=FIX.4.4|9=104|35=A|34=740|49=D103452324_client1|52=20230710-21:54:50.405|56=FXCM|98=0|108=30|553=chris|554=tradermade|10=192|
20230710-21:55:20.189947000 : 8=FIX.4.4|9=104|35=A|34=742|49=D103452324_client1|52=20230710-21:55:20.189|56=FXCM|98=0|108=30|553=chris|554=tradermade|10=201|
20230710-21:56:30.056473000 : 8=FIX.4.4|9=104|35=A|34=743|49=D103452324_client1|52=20230710-21:56:30.055|56=FXCM|98=0|108=30|553=chris|554=tradermade|10=196|
20230710-21:57:00.752725000 : 8=FIX.4.4|9=104|35=A|34=746|49=D103452324_client1|52=20230710-21:57:00.752|56=FXCM|98=0|108=30|553=chris|554=tradermade|10=201|
20230710-22:00:42.394824000 : 8=FIX.4.4|9=104|35=A|34=747|49=D103452324_client1|52=20230710-22:00:42.394|56=FXCM|98=0|108=30|553=chris|554=tradermade|10=199|
20230710-22:01:12.736298000 : 8=FIX.4.4|9=104|35=A|34=751|49=D103452324_client1|52=20230710-22:01:12.735|56=FXCM|98=0|108=30|553=chris|554=tradermade|10=191|
20230710-22:01:53.490147000 : 8=FIX.4.4|9=104|35=A|34=752|49=D103452324_client1|52=20230710-22:01:53.489|56=FXCM|98=0|108=30|553=chris|554=tradermade|10=203|
20230710-22:02:40.400413000 : 8=FIX.4.4|9=104|35=A|34=756|49=D103452324_client1|52=20230710-22:02:40.399|56=FXCM|98=0|108=30|553=chris|554=tradermade|10=204|
20230710-22:03:10.180315000 : 8=FIX.4.4|9=104|35=A|34=759|49=D103452324_client1|52=20230710-22:03:10.179|56=FXCM|98=0|108=30|553=chris|554=tradermade|10=201|
20230710-22:03:40.165709000 : 8=FIX.4.4|9=104|35=A|34=761|49=D103452324_client1|52=20230710-22:03:40.165|56=FXCM|98=0|108=30|553=chris|554=tradermade|10=192|
20230710-22:04:10.579832000 : 8=FIX.4.4|9=104|35=A|34=763|49=D103452324_client1|52=20230710-22:04:10.579|56=FXCM|98=0|108=30|553=chris|554=tradermade|10=201|
20230710-22:04:40.371541000 : 8=FIX.4.4|9=104|35=A|34=765|49=D103452324_client1|52=20230710-22:04:40.371|56=FXCM|98=0|108=30|553=chris|554=tradermade|10=196|
20230710-22:05:10.189592000 : 8=FIX.4.4|9=104|35=A|34=767|49=D103452324_client1|52=20230710-22:05:10.189|56=FXCM|98=0|108=30|553=chris|554=tradermade|10=203|
20230710-22:05:40.365315000 : 8=FIX.4.4|9=104|35=A|34=769|49=D103452324_client1|52=20230710-22:05:40.364|56=FXCM|98=0|108=30|553=chris|554=tradermade|10=203|
20230710-22:06:10.212233000 : 8=FIX.4.4|9=104|35=A|34=771|49=D103452324_client1|52=20230710-22:06:10.211|56=FXCM|98=0|108=30|553=chris|554=tradermade|10=185|
20230710-22:06:40.566372000 : 8=FIX.4.4|9=104|35=A|34=773|49=D103452324_client1|52=20230710-22:06:40.565|56=FXCM|98=0|108=30|553=chris|554=tradermade|10=202|
20230710-22:07:10.563112000 : 8=FIX.4.4|9=104|35=A|34=775|49=D103452324_client1|52=20230710-22:07:10.562|56=FXCM|98=0|108=30|553=chris|554=tradermade|10=199|
20230710-22:07:20.366894000 : 8=FIX.4.4|9=104|35=A|34=776|49=D103452324_client1|52=20230710-22:07:20.366|56=FXCM|98=0|108=30|553=chris|554=tradermade|10=203|
20230710-22:07:50.249706000 : 8=FIX.4.4|9=104|35=A|34=779|49=D103452324_client1|52=20230710-22:07:50.249|56=FXCM|98=0|108=30|553=chris|554=tradermade|10=209|
20230710-22:08:20.862420000 : 8=FIX.4.4|9=104|35=A|34=781|49=D103452324_client1|52=20230710-22:08:20.861|56=FXCM|98=0|108=30|553=chris|554=tradermade|10=200|
20230710-22:11:28.928584000 : 8=FIX.4.4|9=104|35=A|34=782|49=D103452324_client1|52=20230710-22:11:28.927|56=FXCM|98=0|108=30|553=chris|554=tradermade|10=206|
20230710-22:13:36.651562000 : 8=FIX.4.4|9=104|35=A|34=784|49=D103452324_client1|52=20230710-22:13:36.651|56=FXCM|98=0|108=30|553=chris|554=tradermade|10=203|
20230710-22:14:06.419825000 : 8=FIX.4.4|9=104|35=A|34=786|49=D103452324_client1|52=20230710-22:14:06.419|56=FXCM|98=0|108=30|553=chris|554=tradermade|10=205|
20230710-22:14:27.057772000 : 8=FIX.4.4|9=104|35=A|34=788|49=D103452324_client1|52=20230710-22:14:27.057|56=FXCM|98=0|108=30|553=chris|554=tradermade|10=208|
20230710-22:15:35.212316000 : 8=FIX.4.4|9=104|35=A|34=789|49=D103452324_client1|52=20230710-22:15:35.211|56=FXCM|98=0|108=30|553=chris|554=tradermade|10=201|
20230710-22:16:24.485238000 : 8=FIX.4.4|9=104|35=A|34=791|49=D103452324_client1|52=20230710-22:16:24.484|56=FXCM|98=0|108=30|553=chris|554=tradermade|10=205|
20230710-22:16:54.158313000 : 8=FIX.4.4|9=104|35=A|34=793|49=D103452324_client1|52=20230710-22:16:54.157|56=FXCM|98=0|108=30|553=chris|554=tradermade|10=207|
20230710-22:17:24.881441000 : 8=FIX.4.4|9=104|35=A|34=795|49=D103452324_client1|52=20230710-22:17:24.880|56=FXCM|98=0|108=30|553=chris|554=tradermade|10=210|
20230710-22:22:57.419751000 : 8=FIX.4.4|9=104|35=A|34=797|49=D103452324_client1|52=20230710-22:22:57.419|56=FXCM|98=0|108=30|553=chris|554=tradermade|10=212|
20230710-22:25:03.262772000 : 8=FIX.4.4|9=104|35=A|34=801|49=D103452324_client1|52=20230710-22:25:03.262|56=FXCM|98=0|108=30|553=chris|554=tradermade|10=188|
20230710-22:25:33.712869000 : 8=FIX.4.4|9=104|35=A|34=803|49=D103452324_client1|52=20230710-22:25:33.712|56=FXCM|98=0|108=30|553=chris|554=tradermade|10=193|
20230710-22:26:05.519984000 : 8=FIX.4.4|9=104|35=A|34=805|49=D103452324_client1|52=20230710-22:26:05.519|56=FXCM|98=0|108=30|553=chris|554=tradermade|10=200|
20230710-22:26:35.420666000 : 8=FIX.4.4|9=104|35=A|34=807|49=D103452324_client1|52=20230710-22:26:35.420|56=FXCM|98=0|108=30|553=chris|554=tradermade|10=196|
20230710-22:29:48.702269000 : 8=FIX.4.4|9=104|35=A|34=809|49=D103452324_client1|52=20230710-22:29:48.701|56=FXCM|98=0|108=30|553=chris|554=tradermade|10=207|
20230710-22:30:18.320670000 : 8=FIX.4.4|9=104|35=A|34=812|49=D103452324_client1|52=20230710-22:30:18.320|56=FXCM|98=0|108=30|553=chris|554=tradermade|10=187|
20230710-22:30:48.292329000 : 8=FIX.4.4|9=104|35=A|34=814|49=D103452324_client1|52=20230710-22:30:48.291|56=FXCM|98=0|108=30|553=chris|554=tradermade|10=199|
20230710-22:31:52.574312000 : 8=FIX.4.4|9=104|35=A|34=816|49=D103452324_client1|52=20230710-22:31:52.573|56=FXCM|98=0|108=30|553=chris|554=tradermade|10=200|
20230710-22:32:22.842518000 : 8=FIX.4.4|9=104|35=A|34=818|49=D103452324_client1|52=20230710-22:32:22.842|56=FXCM|98=0|108=30|553=chris|554=tradermade|10=199|
20230710-22:32:53.710978000 : 8=FIX.4.4|9=104|35=A|34=820|49=D103452324_client1|52=20230710-22:32:53.710|56=FXCM|98=0|108=30|553=chris|554=tradermade|10=190|
20230710-22:33:23.722654000 : 8=FIX.4.4|9=104|35=A|34=822|49=D103452324_client1|52=20230710-22:33:23.722|56=FXCM|98=0|108=30|553=chris|554=tradermade|10=193|
20230710-22:33:53.322942000 : 8=FIX.4.4|9=104|35=A|34=825|49=D103452324_client1|52=20230710-22:33:53.322|56=FXCM|98=0|108=30|553=chris|554=tradermade|10=195|
20230710-22:34:23.673178000 : 8=FIX.4.4|9=104|35=A|34=827|49=D103452324_client1|52=20230710-22:34:23.672|56=FXCM|98=0|108=30|553=chris|554=tradermade|10=203|
20230710-22:37:25.968975000 : 8=FIX.4.4|9=104|35=A|34=828|49=D103452324_client1|52=20230710-22:37:25.968|56=FXCM|98=0|108=30|553=chris|554=tradermade|10=217|
20230710-22:37:55.655319000 : 8=FIX.4.4|9=104|35=A|34=831|49=D103452324_client1|52=20230710-22:37:55.654|56=FXCM|98=0|108=30|553=chris|554=tradermade|10=206|
20230710-22:42:51.832915000 : 8=FIX.4.4|9=104|35=A|34=833|49=D103452324_client1|52=20230710-22:42:51.832|56=FXCM|98=0|108=30|553=chris|554=tradermade|10=198|
20230710-22:45:00.854258000 : 8=FIX.4.4|9=104|35=A|34=836|49=D103452324_client1|52=20230710-22:45:00.853|56=FXCM|98=0|108=30|553=chris|554=tradermade|10=201|
20230710-22:45:30.342341000 : 8=FIX.4.4|9=104|35=A|34=838|49=D103452324_client1|52=20230710-22:45:30.341|56=FXCM|98=0|108=30|553=chris|554=tradermade|10=198|
20230710-22:48:14.216586000 : 8=FIX.4.4|9=104|35=A|34=841|49=D103452324_client1|52=20230710-22:48:14.215|56=FXCM|98=0|108=30|553=chris|554=tradermade|10=197|
20230710-22:48:44.391988000 : 8=FIX.4.4|9=104|35=A|34=843|49=D103452324_client1|52=20230710-22:48:44.391|56=FXCM|98=0|108=30|553=chris|554=tradermade|10=207|
20230710-22:50:04.729684000 : 8=FIX.4.4|9=104|35=A|34=845|49=D103452324_client1|52=20230710-22:50:04.729|56=FXCM|98=0|108=30|553=chris|554=tradermade|10=203|
20230710-22:50:53.847283000 : 8=FIX.4.4|9=104|35=A|34=847|49=D103452324_client1|52=20230710-22:50:53.846|56=FXCM|98=0|108=30|553=chris|554=tradermade|10=209|
20230710-22:53:31.096568000 : 8=FIX.4.4|9=104|35=A|34=849|49=D103452324_client1|52=20230710-22:53:31.095|56=FXCM|98=0|108=30|553=chris|554=tradermade|10=206|
20230710-22:54:01.642308000 : 8=FIX.4.4|9=104|35=A|34=851|49=D103452324_client1|52=20230710-22:54:01.641|56=FXCM|98=0|108=30|553=chris|554=tradermade|10=194|
20230710-22:54:31.276550000 : 8=FIX.4.4|9=104|35=A|34=853|49=D103452324_client1|52=20230710-22:54:31.275|56=FXCM|98=0|108=30|553=chris|554=tradermade|10=202|
20230710-22:55:10.586955000 : 8=FIX.4.4|9=104|35=A|34=854|49=D103452324_client1|52=20230710-22:55:10.586|56=FXCM|98=0|108=30|553=chris|554=tradermade|10=206|
20230710-22:55:40.423472000 : 8=FIX.4.4|9=104|35=A|34=856|49=D103452324_client1|52=20230710-22:55:40.422|56=FXCM|98=0|108=30|553=chris|554=tradermade|10=200|
20230710-22:56:10.640897000 : 8=FIX.4.4|9=104|35=A|34=858|49=D103452324_client1|52=20230710-22:56:10.640|56=FXCM|98=0|108=30|553=chris|554=tradermade|10=202|
20230710-22:56:49.454507000 : 8=FIX.4.4|9=104|35=A|34=860|49=D103452324_client1|52=20230710-22:56:49.453|56=FXCM|98=0|108=30|553=chris|554=tradermade|10=209|
20230710-22:57:19.947023000 : 8=FIX.4.4|9=104|35=A|34=863|49=D103452324_client1|52=20230710-22:57:19.946|56=FXCM|98=0|108=30|553=chris|554=tradermade|10=217|
20230710-22:58:35.259418000 : 8=FIX.4.4|9=104|35=A|34=865|49=D103452324_client1|52=20230710-22:58:35.258|56=FXCM|98=0|108=30|553=chris|554=tradermade|10=214|
20230710-22:59:05.168361000 : 8=FIX.4.4|9=104|35=A|34=867|49=D103452324_client1|52=20230710-22:59:05.167|56=FXCM|98=0|108=30|553=chris|554=tradermade|10=213|
20230710-22:59:30.770510000 : 8=FIX.4.4|9=104|35=A|34=868|49=D103452324_client1|52=20230710-22:59:30.769|56=FXCM|98=0|108=30|553=chris|554=tradermade|10=220|
20230710-23:00:00.930068000 : 8=FIX.4.4|9=104|35=A|34=870|49=D103452324_client1|52=20230710-23:00:00.929|56=FXCM|98=0|108=30|553=chris|554=tradermade|10=195|
20230710-23:00:30.878135000 : 8=FIX.4.4|9=104|35=A|34=873|49=D103452324_client1|52=20230710-23:00:30.877|56=FXCM|98=0|108=30|553=chris|554=tradermade|10=203|
20230710-23:03:11.753760000 : 8=FIX.4.4|9=104|35=A|34=875|49=D103452324_client1|52=20230710-23:03:11.752|56=FXCM|98=0|108=30|553=chris|554=tradermade|10=199|
20230710-23:03:41.612444000 : 8=FIX.4.4|9=104|35=A|34=877|49=D103452324_client1|52=20230710-23:03:41.611|56=FXCM|98=0|108=30|553=chris|554=tradermade|10=198|
20230710-23:04:21.484467000 : 8=FIX.4.4|9=104|35=A|34=879|49=D103452324_client1|52=20230710-23:04:21.483|56=FXCM|98=0|108=30|553=chris|554=tradermade|10=206|
20230710-23:22:55.035640000 : 8=FIX.4.4|9=104|35=A|34=881|49=D103452324_client1|52=20230710-23:22:55.034|56=FXCM|98=0|108=30|553=chris|554=tradermade|10=198|
20230710-23:25:14.966797000 : 8=FIX.4.4|9=104|35=A|34=883|49=D103452324_client1|52=20230710-23:25:14.965|56=FXCM|98=0|108=30|553=chris|554=tradermade|10=211|
20230710-23:25:44.341013000 : 8=FIX.4.4|9=104|35=A|34=885|49=D103452324_client1|52=20230710-23:25:44.340|56=FXCM|98=0|108=30|553=chris|554=tradermade|10=203|
20230710-23:26:14.383025000 : 8=FIX.4.4|9=104|35=A|34=887|49=D103452324_client1|52=20230710-23:26:14.382|56=FXCM|98=0|108=30|553=chris|554=tradermade|10=209|
20230710-23:26:44.558752000 : 8=FIX.4.4|9=104|35=A|34=889|49=D103452324_client1|52=20230710-23:26:44.558|56=FXCM|98=0|108=30|553=chris|554=tradermade|10=219|
20230710-23:27:14.600990000 : 8=FIX.4.4|9=104|35=A|34=892|49=D103452324_client1|52=20230710-23:27:14.600|56=FXCM|98=0|108=30|553=chris|554=tradermade|10=199|
20230710-23:27:44.473797000 : 8=FIX.4.4|9=104|35=A|34=894|49=D103452324_client1|52=20230710-23:27:44.473|56=FXCM|98=0|108=30|553=chris|554=tradermade|10=212|
20230711-00:05:22.036866000 : 8=FIX.4.4|9=102|35=A|34=1|49=D103452324_client1|52=20230711-00:05:22.036|56=FXCM|98=0|108=30|553=chris|554=tradermade|10=077|
20230711-01:09:19.054430000 : 8=FIX.4.4|9=102|35=A|34=2|49=D103452324_client1|52=20230711-01:09:19.053|56=FXCM|98=0|108=30|553=chris|554=tradermade|10=088|
20230711-01:09:49.339071000 : 8=FIX.4.4|9=102|35=A|34=4|49=D103452324_client1|52=20230711-01:09:49.338|56=FXCM|98=0|108=30|553=chris|554=tradermade|10=099|
20230711-01:10:19.306621000 : 8=FIX.4.4|9=102|35=A|34=6|49=D103452324_client1|52=20230711-01:10:19.306|56=FXCM|98=0|108=30|553=chris|554=tradermade|10=085|
20230711-01:10:38.166955000 : 8=FIX.4.4|9=102|35=A|34=8|49=D103452324_client1|52=20230711-01:10:38.166|56=FXCM|98=0|108=30|553=chris|554=tradermade|10=092|
20230711-01:11:08.495865000 : 8=FIX.4.4|9=103|35=A|34=10|49=D103452324_client1|52=20230711-01:11:08.495|56=FXCM|98=0|108=30|553=chris|554=tradermade|10=137|
20230711-01:11:38.579964000 : 8=FIX.4.4|9=103|35=A|34=12|49=D103452324_client1|52=20230711-01:11:38.579|56=FXCM|98=0|108=30|553=chris|554=tradermade|10=145|
20230711-01:12:08.287431000 : 8=FIX.4.4|9=103|35=A|34=14|49=D103452324_client1|52=20230711-01:12:08.287|56=FXCM|98=0|108=30|553=chris|554=tradermade|10=141|
20230711-01:12:38.425218000 : 8=FIX.4.4|9=103|35=A|34=16|49=D103452324_client1|52=20230711-01:12:38.424|56=FXCM|98=0|108=30|553=chris|554=tradermade|10=139|
20230711-01:14:20.152020000 : 8=FIX.4.4|9=103|35=A|34=17|49=D103452324_client1|52=20230711-01:14:20.151|56=FXCM|98=0|108=30|553=chris|554=tradermade|10=130|
20230711-12:42:50.249648000 : 8=FIX.4.4|9=103|35=A|34=18|49=D103452324_client1|52=20230711-12:42:50.248|56=FXCM|98=0|108=30|553=chris|554=tradermade|10=144|
20230711-12:43:20.671923000 : 8=FIX.4.4|9=103|35=A|34=20|49=D103452324_client1|52=20230711-12:43:20.671|56=FXCM|98=0|108=30|553=chris|554=tradermade|10=135|
20230711-12:43:52.644252000 : 8=FIX.4.4|9=103|35=A|34=22|49=D103452324_client1|52=20230711-12:43:52.643|56=FXCM|98=0|108=30|553=chris|554=tradermade|10=141|
20230711-12:45:38.228387000 : 8=FIX.4.4|9=103|35=A|34=23|49=D103452324_client1|52=20230711-12:45:38.227|56=FXCM|98=0|108=30|553=chris|554=tradermade|10=146|
20230711-12:46:44.122421000 : 8=FIX.4.4|9=103|35=A|34=25|49=D103452324_client1|52=20230711-12:46:44.121|56=FXCM|98=0|108=30|553=chris|554=tradermade|10=139|
20230711-12:47:14.447377000 : 8=FIX.4.4|9=103|35=A|34=27|49=D103452324_client1|52=20230711-12:47:14.446|56=FXCM|98=0|108=30|553=chris|554=tradermade|10=149|
20230711-12:47:44.518870000 : 8=FIX.4.4|9=103|35=A|34=29|49=D103452324_client1|52=20230711-12:47:44.518|56=FXCM|98=0|108=30|553=chris|554=tradermade|10=154|
20230711-12:48:14.263210000 : 8=FIX.4.4|9=103|35=A|34=31|49=D103452324_client1|52=20230711-12:48:14.262|56=FXCM|98=0|108=30|553=chris|554=tradermade|10=141|
20230711-12:48:44.333590000 : 8=FIX.4.4|9=103|35=A|34=33|49=D103452324_client1|52=20230711-12:48:44.332|56=FXCM|98=0|108=30|553=chris|554=tradermade|10=144|
20230711-12:49:13.098260000 : 8=FIX.4.4|9=103|35=A|34=35|49=D103452324_client1|52=20230711-12:49:13.097|56=FXCM|98=0|108=30|553=chris|554=tradermade|10=151|
20230711-12:49:43.414590000 : 8=FIX.4.4|9=103|35=A|34=37|49=D103452324_client1|52=20230711-12:49:43.413|56=FXCM|98=0|108=30|553=chris|554=tradermade|10=148|
20230711-12:50:13.535489000 : 8=FIX.4.4|9=103|35=A|34=39|49=D103452324_client1|52=20230711-12:50:13.534|56=FXCM|98=0|108=30|553=chris|554=tradermade|10=143|
20230711-12:50:43.337149000 : 8=FIX.4.4|9=103|35=A|34=41|49=D103452324_client1|52=20230711-12:50:43.336|56=FXCM|98=0|108=30|553=chris|554=tradermade|10=139|
20230711-12:51:13.489044000 : 8=FIX.4.4|9=103|35=A|34=43|49=D103452324_client1|52=20230711-12:51:13.488|56=FXCM|98=0|108=30|553=chris|554=tradermade|10=147|
20230711-12:51:43.405758000 : 8=FIX.4.4|9=103|35=A|34=45|49=D103452324_client1|52=20230711-12:51:43.405|56=FXCM|98=0|108=30|553=chris|554=tradermade|10=141|
20230711-12:52:13.183994000 : 8=FIX.4.4|9=103|35=A|34=47|49=D103452324_client1|52=20230711-12:52:13.183|56=FXCM|98=0|108=30|553=chris|554=tradermade|10=144|
20230711-12:55:26.567384000 : 8=FIX.4.4|9=103|35=A|34=48|49=D103452324_client1|52=20230711-12:55:26.566|56=FXCM|98=0|108=30|553=chris|554=tradermade|10=157|
20230711-12:58:54.770530000 : 8=FIX.4.4|9=103|35=A|34=50|49=D103452324_client1|52=20230711-12:58:54.769|56=FXCM|98=0|108=30|553=chris|554=tradermade|10=159|
20230711-12:59:25.015948000 : 8=FIX.4.4|9=103|35=A|34=52|49=D103452324_client1|52=20230711-12:59:25.015|56=FXCM|98=0|108=30|553=chris|554=tradermade|10=144|
20230711-12:59:43.623325000 : 8=FIX.4.4|9=103|35=A|34=53|49=D103452324_client1|52=20230711-12:59:43.622|56=FXCM|98=0|108=30|553=chris|554=tradermade|10=149|
20230711-13:00:13.800851000 : 8=FIX.4.4|9=103|35=A|34=56|49=D103452324_client1|52=20230711-13:00:13.800|56=FXCM|98=0|108=30|553=chris|554=tradermade|10=134|
20230711-13:00:43.185597000 : 8=FIX.4.4|9=103|35=A|34=58|49=D103452324_client1|52=20230711-13:00:43.184|56=FXCM|98=0|108=30|553=chris|554=tradermade|10=144|
20230711-13:01:13.530212000 : 8=FIX.4.4|9=103|35=A|34=60|49=D103452324_client1|52=20230711-13:01:13.529|56=FXCM|98=0|108=30|553=chris|554=tradermade|10=138|
20230711-13:09:44.253001000 : 8=FIX.4.4|9=103|35=A|34=62|49=D103452324_client1|52=20230711-13:09:44.252|56=FXCM|98=0|108=30|553=chris|554=tradermade|10=145|
20230711-13:10:14.894908000 : 8=FIX.4.4|9=103|35=A|34=65|49=D103452324_client1|52=20230711-13:10:14.894|56=FXCM|98=0|108=30|553=chris|554=tradermade|10=149|
20230711-13:10:44.866500000 : 8=FIX.4.4|9=103|35=A|34=67|49=D103452324_client1|52=20230711-13:10:44.866|56=FXCM|98=0|108=30|553=chris|554=tradermade|10=153|
20230711-13:29:32.450640000 : 8=FIX.4.4|9=103|35=A|34=68|49=D103452324_client1|52=20230711-13:29:32.449|56=FXCM|98=0|108=30|553=chris|554=tradermade|10=158|
20230711-13:30:02.365618000 : 8=FIX.4.4|9=103|35=A|34=71|49=D103452324_client1|52=20230711-13:30:02.365|56=FXCM|98=0|108=30|553=chris|554=tradermade|10=138|
20230711-14:22:33.243581000 : 8=FIX.4.4|9=103|35=A|34=72|49=D103452324_client1|52=20230711-14:22:33.242|56=FXCM|98=0|108=30|553=chris|554=tradermade|10=139|
20230711-14:23:09.579340000 : 8=FIX.4.4|9=103|35=A|34=74|49=D103452324_client1|52=20230711-14:23:09.578|56=FXCM|98=0|108=30|553=chris|554=tradermade|10=157|
20230711-14:23:39.600802000 : 8=FIX.4.4|9=103|35=A|34=76|49=D103452324_client1|52=20230711-14:23:39.600|56=FXCM|98=0|108=30|553=chris|554=tradermade|10=148|
20230711-14:24:09.234191000 : 8=FIX.4.4|9=103|35=A|34=78|49=D103452324_client1|52=20230711-14:24:09.233|56=FXCM|98=0|108=30|553=chris|554=tradermade|10=150|
20230711-14:24:34.212308000 : 8=FIX.4.4|9=103|35=A|34=79|49=D103452324_client1|52=20230711-14:24:34.211|56=FXCM|98=0|108=30|553=chris|554=tradermade|10=145|
20230711-14:25:04.599703000 : 8=FIX.4.4|9=103|35=A|34=81|49=D103452324_client1|52=20230711-14:25:04.599|56=FXCM|98=0|108=30|553=chris|554=tradermade|10=155|
20230711-14:27:12.586867000 : 8=FIX.4.4|9=103|35=A|34=83|49=D103452324_client1|52=20230711-14:27:12.586|56=FXCM|98=0|108=30|553=chris|554=tradermade|10=154|
20230711-14:27:42.329834000 : 8=FIX.4.4|9=103|35=A|34=86|49=D103452324_client1|52=20230711-14:27:42.329|56=FXCM|98=0|108=30|553=chris|554=tradermade|10=155|
20230711-14:31:46.833846000 : 8=FIX.4.4|9=103|35=A|34=87|49=D103452324_client1|52=20230711-14:31:46.833|56=FXCM|98=0|108=30|553=chris|554=tradermade|10=155|
20230711-14:31:59.489993000 : 8=FIX.4.4|9=103|35=A|34=88|49=D103452324_client1|52=20230711-14:31:59.489|56=FXCM|98=0|108=30|553=chris|554=tradermade|10=167|
20230711-14:40:27.420842000 : 8=FIX.4.4|9=103|35=A|34=90|49=D103452324_client1|52=20230711-14:40:27.420|56=FXCM|98=0|108=30|553=chris|554=tradermade|10=140|
20230711-14:40:48.377596000 : 8=FIX.4.4|9=103|35=A|34=92|49=D103452324_client1|52=20230711-14:40:48.377|56=FXCM|98=0|108=30|553=chris|554=tradermade|10=156|
20230711-14:59:37.291867000 : 8=FIX.4.4|9=103|35=A|34=95|49=D103452324_client1|52=20230711-14:59:37.291|56=FXCM|98=0|108=30|553=chris|554=tradermade|10=162|
20230711-15:04:30.205162000 : 8=FIX.4.4|9=103|35=A|34=96|49=D103452324_client1|52=20230711-15:04:30.204|56=FXCM|98=0|108=30|553=chris|554=tradermade|10=141|
20230711-15:10:07.377279000 : 8=FIX.4.4|9=103|35=A|34=97|49=D103452324_client1|52=20230711-15:10:07.376|56=FXCM|98=0|108=30|553=chris|554=tradermade|10=153|
20230711-15:31:30.145455000 : 8=FIX.4.4|9=103|35=A|34=98|49=D103452324_client1|52=20230711-15:31:30.144|56=FXCM|98=0|108=30|553=chris|554=tradermade|10=146|
20230711-15:32:00.660506000 : 8=FIX.4.4|9=104|35=A|34=101|49=D103452324_client1|52=20230711-15:32:00.659|56=FXCM|98=0|108=30|553=chris|554=tradermade|10=189|
20230711-15:32:25.784466000 : 8=FIX.4.4|9=104|35=A|34=102|49=D103452324_client1|52=20230711-15:32:25.783|56=FXCM|98=0|108=30|553=chris|554=tradermade|10=195|
20230711-15:32:55.526833000 : 8=FIX.4.4|9=104|35=A|34=104|49=D103452324_client1|52=20230711-15:32:55.526|56=FXCM|98=0|108=30|553=chris|554=tradermade|10=195|
20230711-15:33:25.596376000 : 8=FIX.4.4|9=104|35=A|34=106|49=D103452324_client1|52=20230711-15:33:25.595|56=FXCM|98=0|108=30|553=chris|554=tradermade|10=201|
20230711-15:33:55.683978000 : 8=FIX.4.4|9=104|35=A|34=108|49=D103452324_client1|52=20230711-15:33:55.683|56=FXCM|98=0|108=30|553=chris|554=tradermade|10=204|
20230711-15:34:25.600338000 : 8=FIX.4.4|9=104|35=A|34=110|49=D103452324_client1|52=20230711-15:34:25.599|56=FXCM|98=0|108=30|553=chris|554=tradermade|10=201|
20230711-15:34:55.402811000 : 8=FIX.4.4|9=104|35=A|34=112|49=D103452324_client1|52=20230711-15:34:55.402|56=FXCM|98=0|108=30|553=chris|554=tradermade|10=189|
20230711-16:10:00.669020000 : 8=FIX.4.4|9=104|35=A|34=114|49=D103452324_client1|52=20230711-16:10:00.668|56=FXCM|98=0|108=30|553=chris|554=tradermade|10=190|
20230711-16:12:57.509641000 : 8=FIX.4.4|9=104|35=A|34=116|49=D103452324_client1|52=20230711-16:12:57.508|56=FXCM|98=0|108=30|553=chris|554=tradermade|10=199|
20230711-16:13:27.761720000 : 8=FIX.4.4|9=104|35=A|34=119|49=D103452324_client1|52=20230711-16:13:27.761|56=FXCM|98=0|108=30|553=chris|554=tradermade|10=201|
20230711-16:14:36.499620000 : 8=FIX.4.4|9=104|35=A|34=121|49=D103452324_client1|52=20230711-16:14:36.499|56=FXCM|98=0|108=30|553=chris|554=tradermade|10=203|
20230711-16:15:06.213001000 : 8=FIX.4.4|9=104|35=A|34=124|49=D103452324_client1|52=20230711-16:15:06.212|56=FXCM|98=0|108=30|553=chris|554=tradermade|10=187|
20230711-16:41:35.592612000 : 8=FIX.4.4|9=104|35=A|34=126|49=D103452324_client1|52=20230711-16:41:35.592|56=FXCM|98=0|108=30|553=chris|554=tradermade|10=201|
20230711-17:45:19.869289000 : 8=FIX.4.4|9=104|35=A|34=129|49=D103452324_client1|52=20230711-17:45:19.868|56=FXCM|98=0|108=30|553=chris|554=tradermade|10=217|
20230711-17:59:42.765402000 : 8=FIX.4.4|9=104|35=A|34=132|49=D103452324_client1|52=20230711-17:59:42.764|56=FXCM|98=0|108=30|553=chris|554=tradermade|10=207|
20230711-22:19:41.558219000 : 8=FIX.4.4|9=104|35=A|34=135|49=D103452324_client1|52=20230711-22:19:41.556|56=FXCM|98=0|108=30|553=chris|554=tradermade|10=200|
20230711-22:21:56.215161000 : 8=FIX.4.4|9=104|35=A|34=136|49=D103452324_client1|52=20230711-22:21:56.214|56=FXCM|98=0|108=30|553=chris|554=tradermade|10=191|
20230711-22:59:31.961544000 : 8=FIX.4.4|9=104|35=A|34=137|49=D103452324_client1|52=20230711-22:59:31.960|56=FXCM|98=0|108=30|553=chris|554=tradermade|10=204|
20230711-22:59:51.927705000 : 8=FIX.4.4|9=104|35=A|34=138|49=D103452324_client1|52=20230711-22:59:51.927|56=FXCM|98=0|108=30|553=chris|554=tradermade|10=210|
20230711-23:01:34.838382000 : 8=FIX.4.4|9=104|35=A|34=139|49=D103452324_client1|52=20230711-23:01:34.837|56=FXCM|98=0|108=30|553=chris|554=tradermade|10=200|
20230711-23:48:45.216025000 : 8=FIX.4.4|9=104|35=A|34=140|49=D103452324_client1|52=20230711-23:48:45.215|56=FXCM|98=0|108=30|553=chris|554=tradermade|10=195|
20230712-00:10:22.571393000 : 8=FIX.4.4|9=102|35=A|34=1|49=D103452324_client1|52=20230712-00:10:22.570|56=FXCM|98=0|108=30|553=chris|554=tradermade|10=077|
20230712-00:10:52.981606000 : 8=FIX.4.4|9=102|35=A|34=3|49=D103452324_client1|52=20230712-00:10:52.981|56=FXCM|98=0|108=30|553=chris|554=tradermade|10=088|
20230712-00:11:22.365867000 : 8=FIX.4.4|9=102|35=A|34=5|49=D103452324_client1|52=20230712-00:11:22.365|56=FXCM|98=0|108=30|553=chris|554=tradermade|10=084|
20230712-00:11:52.877338000 : 8=FIX.4.4|9=102|35=A|34=7|49=D103452324_client1|52=20230712-00:11:52.876|56=FXCM|98=0|108=30|553=chris|554=tradermade|10=096|
20230712-01:30:30.091516000 : 8=FIX.4.4|9=102|35=A|34=9|49=D103452324_client1|52=20230712-01:30:30.090|56=FXCM|98=0|108=30|553=chris|554=tradermade|10=084|
20230712-01:32:52.532250000 : 8=FIX.4.4|9=103|35=A|34=10|49=D103452324_client1|52=20230712-01:32:52.531|56=FXCM|98=0|108=30|553=chris|554=tradermade|10=131|
20230712-01:41:46.718012000 : 8=FIX.4.4|9=103|35=A|34=11|49=D103452324_client1|52=20230712-01:41:46.714|56=FXCM|98=0|108=30|553=chris|554=tradermade|10=138|
20230712-01:42:45.780224000 : 8=FIX.4.4|9=103|35=A|34=12|49=D103452324_client1|52=20230712-01:42:45.779|56=FXCM|98=0|108=30|553=chris|554=tradermade|10=150|
20230712-01:52:25.483500000 : 8=FIX.4.4|9=103|35=A|34=13|49=D103452324_client1|52=20230712-01:52:25.482|56=FXCM|98=0|108=30|553=chris|554=tradermade|10=141|
20230712-01:52:32.965235000 : 8=FIX.4.4|9=103|35=A|34=14|49=D103452324_client1|52=20230712-01:52:32.964|56=FXCM|98=0|108=30|553=chris|554=tradermade|10=145|
20230712-01:56:32.822088000 : 8=FIX.4.4|9=103|35=A|34=15|49=D103452324_client1|52=20230712-01:56:32.821|56=FXCM|98=0|108=30|553=chris|554=tradermade|10=142|
20230712-01:58:46.763315000 : 8=FIX.4.4|9=103|35=A|34=16|49=D103452324_client1|52=20230712-01:58:46.762|56=FXCM|98=0|108=30|553=chris|554=tradermade|10=154|
20230712-02:01:33.071518000 : 8=FIX.4.4|9=103|35=A|34=17|49=D103452324_client1|52=20230712-02:01:33.070|56=FXCM|98=0|108=30|553=chris|554=tradermade|10=132|
20230712-02:02:40.453007000 : 8=FIX.4.4|9=103|35=A|34=18|49=D103452324_client1|52=20230712-02:02:40.452|56=FXCM|98=0|108=30|553=chris|554=tradermade|10=136|
20230712-02:04:09.035964000 : 8=FIX.4.4|9=103|35=A|34=19|49=D103452324_client1|52=20230712-02:04:09.035|56=FXCM|98=0|108=30|553=chris|554=tradermade|10=141|
20230712-02:04:18.953674000 : 8=FIX.4.4|9=103|35=A|34=20|49=D103452324_client1|52=20230712-02:04:18.952|56=FXCM|98=0|108=30|553=chris|554=tradermade|10=141|
20230712-02:04:34.420755000 : 8=FIX.4.4|9=103|35=A|34=21|49=D103452324_client1|52=20230712-02:04:34.420|56=FXCM|98=0|108=30|553=chris|554=tradermade|10=130|
20230712-02:05:24.106104000 : 8=FIX.4.4|9=103|35=A|34=22|49=D103452324_client1|52=20230712-02:05:24.105|56=FXCM|98=0|108=30|553=chris|554=tradermade|10=131|
20230712-02:05:37.565178000 : 8=FIX.4.4|9=103|35=A|34=23|49=D103452324_client1|52=20230712-02:05:37.564|56=FXCM|98=0|108=30|553=chris|554=tradermade|10=145|
20230712-02:06:20.454922000 : 8=FIX.4.4|9=103|35=A|34=24|49=D103452324_client1|52=20230712-02:06:20.453|56=FXCM|98=0|108=30|553=chris|554=tradermade|10=136|
20230712-02:07:25.871326000 : 8=FIX.4.4|9=103|35=A|34=25|49=D103452324_client1|52=20230712-02:07:25.870|56=FXCM|98=0|108=30|553=chris|554=tradermade|10=146|
20230712-02:08:02.626727000 : 8=FIX.4.4|9=103|35=A|34=26|49=D103452324_client1|52=20230712-02:08:02.625|56=FXCM|98=0|108=30|553=chris|554=tradermade|10=141|
20230712-02:18:03.216542000 : 8=FIX.4.4|9=103|35=A|34=27|49=D103452324_client1|52=20230712-02:18:03.215|56=FXCM|98=0|108=30|553=chris|554=tradermade|10=139|
20230712-13:30:59.048355000 : 8=FIX.4.4|9=103|35=A|34=29|49=D103452324_client1|52=20230712-13:30:59.045|56=FXCM|98=0|108=30|553=chris|554=tradermade|10=149|
20230712-13:31:29.356468000 : 8=FIX.4.4|9=103|35=A|34=31|49=D103452324_client1|52=20230712-13:31:29.355|56=FXCM|98=0|108=30|553=chris|554=tradermade|10=144|
20230712-13:31:59.463339000 : 8=FIX.4.4|9=103|35=A|34=33|49=D103452324_client1|52=20230712-13:31:59.462|56=FXCM|98=0|108=30|553=chris|554=tradermade|10=148|
20230712-13:32:29.875586000 : 8=FIX.4.4|9=103|35=A|34=35|49=D103452324_client1|52=20230712-13:32:29.874|56=FXCM|98=0|108=30|553=chris|554=tradermade|10=155|
20230712-13:32:59.264142000 : 8=FIX.4.4|9=103|35=A|34=37|49=D103452324_client1|52=20230712-13:32:59.263|56=FXCM|98=0|108=30|553=chris|554=tradermade|10=152|
20230712-13:50:43.112641000 : 8=FIX.4.4|9=102|35=A|34=39|49=D103452324_client1|52=20230712-13:50:43.112|56=FXCM|98=0|108=30|553=D103452324|554=1234|10=047|
20230712-13:53:37.431487000 : 8=FIX.4.4|9=102|35=A|34=41|49=D103452324_client1|52=20230712-13:53:37.430|56=FXCM|98=0|108=30|553=D103452324|554=1234|10=049|
20230712-13:54:21.032408000 : 8=FIX.4.4|9=102|35=A|34=43|49=D103452324_client1|52=20230712-13:54:21.031|56=FXCM|98=0|108=30|553=D103452324|554=1234|10=042|
20230712-13:54:51.344058000 : 8=FIX.4.4|9=102|35=A|34=45|49=D103452324_client1|52=20230712-13:54:51.343|56=FXCM|98=0|108=30|553=D103452324|554=1234|10=053|
20230712-13:55:41.214712000 : 8=FIX.4.4|9=102|35=A|34=47|49=D103452324_client1|52=20230712-13:55:41.214|56=FXCM|98=0|108=30|553=D103452324|554=1234|10=052|
20230712-13:56:11.322906000 : 8=FIX.4.4|9=102|35=A|34=49|49=D103452324_client1|52=20230712-13:56:11.322|56=FXCM|98=0|108=30|553=D103452324|554=1234|10=052|
20230712-14:00:09.405794000 : 8=FIX.4.4|9=102|35=A|34=51|49=D103452324_client1|52=20230712-14:00:09.405|56=FXCM|98=0|108=30|553=D103452324|554=1234|10=044|
20230712-14:00:39.274900000 : 8=FIX.4.4|9=102|35=A|34=53|49=D103452324_client1|52=20230712-14:00:39.274|56=FXCM|98=0|108=30|553=D103452324|554=1234|10=053|
20230712-14:01:09.529835000 : 8=FIX.4.4|9=102|35=A|34=55|49=D103452324_client1|52=20230712-14:01:09.529|56=FXCM|98=0|108=30|553=D103452324|554=1234|10=056|
