20230712-00:46:27.386432000 : 8=FIX.4.4|9=102|35=A|34=1|49=D103452324_client1|52=20230712-00:46:27.385|56=FXCM|98=0|108=30|553=chris|554=tradermade|10=095|
20230712-00:46:57.901648000 : 8=FIX.4.4|9=102|35=A|34=3|49=D103452324_client1|52=20230712-00:46:57.901|56=FXCM|98=0|108=30|553=chris|554=tradermade|10=094|
20230712-00:47:27.906579000 : 8=FIX.4.4|9=102|35=A|34=5|49=D103452324_client1|52=20230712-00:47:27.905|56=FXCM|98=0|108=30|553=chris|554=tradermade|10=098|
20230712-00:48:00.476462000 : 8=FIX.4.4|9=102|35=A|34=7|49=D103452324_client1|52=20230712-00:48:00.475|56=FXCM|98=0|108=30|553=chris|554=tradermade|10=094|
20230712-00:48:30.885109000 : 8=FIX.4.4|9=102|35=A|34=9|49=D103452324_client1|52=20230712-00:48:30.884|56=FXCM|98=0|108=30|553=chris|554=tradermade|10=103|
20230712-00:49:00.345776000 : 8=FIX.4.4|9=103|35=A|34=11|49=D103452324_client1|52=20230712-00:49:00.345|56=FXCM|98=0|108=30|553=chris|554=tradermade|10=135|
20230712-00:49:30.689455000 : 8=FIX.4.4|9=103|35=A|34=13|49=D103452324_client1|52=20230712-00:49:30.688|56=FXCM|98=0|108=30|553=chris|554=tradermade|10=150|
20230712-00:50:10.936135000 : 8=FIX.4.4|9=103|35=A|34=16|49=D103452324_client1|52=20230712-00:50:10.934|56=FXCM|98=0|108=30|553=chris|554=tradermade|10=137|
20230712-00:50:41.042405000 : 8=FIX.4.4|9=103|35=A|34=19|49=D103452324_client1|52=20230712-00:50:41.041|56=FXCM|98=0|108=30|553=chris|554=tradermade|10=133|
20230712-00:54:15.985712000 : 8=FIX.4.4|9=103|35=A|34=20|49=D103452324_client1|52=20230712-00:54:15.984|56=FXCM|98=0|108=30|553=chris|554=tradermade|10=146|
20230712-00:56:38.520314000 : 8=FIX.4.4|9=103|35=A|34=21|49=D103452324_client1|52=20230712-00:56:38.519|56=FXCM|98=0|108=30|553=chris|554=tradermade|10=148|
20230712-00:58:31.997411000 : 8=FIX.4.4|9=103|35=A|34=22|49=D103452324_client1|52=20230712-00:58:31.996|56=FXCM|98=0|108=30|553=chris|554=tradermade|10=153|
20230712-00:59:01.586979000 : 8=FIX.4.4|9=103|35=A|34=24|49=D103452324_client1|52=20230712-00:59:01.586|56=FXCM|98=0|108=30|553=chris|554=tradermade|10=148|
20230712-01:04:44.198478000 : 8=FIX.4.4|9=103|35=A|34=27|49=D103452324_client1|52=20230712-01:04:44.197|56=FXCM|98=0|108=30|553=chris|554=tradermade|10=147|
20230712-01:05:14.591715000 : 8=FIX.4.4|9=103|35=A|34=29|49=D103452324_client1|52=20230712-01:05:14.591|56=FXCM|98=0|108=30|553=chris|554=tradermade|10=145|
20230712-01:06:30.066674000 : 8=FIX.4.4|9=103|35=A|34=30|49=D103452324_client1|52=20230712-01:06:30.065|56=FXCM|98=0|108=30|553=chris|554=tradermade|10=132|
20230712-01:09:39.759459000 : 8=FIX.4.4|9=103|35=A|34=31|49=D103452324_client1|52=20230712-01:09:39.758|56=FXCM|98=0|108=30|553=chris|554=tradermade|10=154|
20230712-01:10:09.250831000 : 8=FIX.4.4|9=103|35=A|34=33|49=D103452324_client1|52=20230712-01:10:09.250|56=FXCM|98=0|108=30|553=chris|554=tradermade|10=132|
