20230711-13:39:49.575372000 : 8=FIX.4.4|9=102|35=A|34=1|49=D103452324_client1|52=20230711-13:39:49.569|56=FXCM|98=0|108=30|553=chris|554=tradermade|10=108|
20230711-13:40:25.093798000 : 8=FIX.4.4|9=102|35=A|34=2|49=D103452324_client1|52=20230711-13:40:25.092|56=FXCM|98=0|108=30|553=chris|554=tradermade|10=086|
20230711-13:40:55.506975000 : 8=FIX.4.4|9=102|35=A|34=4|49=D103452324_client1|52=20230711-13:40:55.480|56=FXCM|98=0|108=30|553=chris|554=tradermade|10=092|
20230711-13:41:18.450263000 : 8=FIX.4.4|9=102|35=A|34=6|49=D103452324_client1|52=20230711-13:41:18.439|56=FXCM|98=0|108=30|553=chris|554=tradermade|10=098|
20230711-13:42:56.141227000 : 8=FIX.4.4|9=102|35=A|34=7|49=D103452324_client1|52=20230711-13:42:56.140|56=FXCM|98=0|108=30|553=chris|554=tradermade|10=091|
20230711-13:43:26.158782000 : 8=FIX.4.4|9=102|35=A|34=9|49=D103452324_client1|52=20230711-13:43:26.157|56=FXCM|98=0|108=30|553=chris|554=tradermade|10=099|
20230711-13:43:56.173736000 : 8=FIX.4.4|9=103|35=A|34=11|49=D103452324_client1|52=20230711-13:43:56.173|56=FXCM|98=0|108=30|553=chris|554=tradermade|10=142|
20230711-13:44:26.348912000 : 8=FIX.4.4|9=103|35=A|34=13|49=D103452324_client1|52=20230711-13:44:26.348|56=FXCM|98=0|108=30|553=chris|554=tradermade|10=146|
20230711-13:44:56.242778000 : 8=FIX.4.4|9=103|35=A|34=15|49=D103452324_client1|52=20230711-13:44:56.242|56=FXCM|98=0|108=30|553=chris|554=tradermade|10=144|
20230711-13:45:52.010576000 : 8=FIX.4.4|9=103|35=A|34=16|49=D103452324_client1|52=20230711-13:45:52.009|56=FXCM|98=0|108=30|553=chris|554=tradermade|10=143|
20230711-13:46:30.359369000 : 8=FIX.4.4|9=103|35=A|34=18|49=D103452324_client1|52=20230711-13:46:30.358|56=FXCM|98=0|108=30|553=chris|554=tradermade|10=149|
20230711-13:47:02.602970000 : 8=FIX.4.4|9=103|35=A|34=19|49=D103452324_client1|52=20230711-13:47:02.602|56=FXCM|98=0|108=30|553=chris|554=tradermade|10=142|
20230711-13:51:55.481135000 : 8=FIX.4.4|9=103|35=A|34=21|49=D103452324_client1|52=20230711-13:51:55.395|56=FXCM|98=0|108=30|553=chris|554=tradermade|10=147|
20230711-13:53:23.902421000 : 8=FIX.4.4|9=103|35=A|34=22|49=D103452324_client1|52=20230711-13:53:23.901|56=FXCM|98=0|108=30|553=chris|554=tradermade|10=138|
20230711-13:53:53.193311000 : 8=FIX.4.4|9=103|35=A|34=24|49=D103452324_client1|52=20230711-13:53:53.192|56=FXCM|98=0|108=30|553=chris|554=tradermade|10=145|
20230711-13:55:15.219772000 : 8=FIX.4.4|9=103|35=A|34=25|49=D103452324_client1|52=20230711-13:55:15.218|56=FXCM|98=0|108=30|553=chris|554=tradermade|10=145|
20230711-13:56:02.862281000 : 8=FIX.4.4|9=103|35=A|34=27|49=D103452324_client1|52=20230711-13:56:02.861|56=FXCM|98=0|108=30|553=chris|554=tradermade|10=148|
20230711-13:56:25.973777000 : 8=FIX.4.4|9=103|35=A|34=28|49=D103452324_client1|52=20230711-13:56:25.972|56=FXCM|98=0|108=30|553=chris|554=tradermade|10=157|
20230711-13:56:55.181255000 : 8=FIX.4.4|9=103|35=A|34=30|49=D103452324_client1|52=20230711-13:56:55.180|56=FXCM|98=0|108=30|553=chris|554=tradermade|10=144|
20230711-13:57:25.306975000 : 8=FIX.4.4|9=103|35=A|34=32|49=D103452324_client1|52=20230711-13:57:25.306|56=FXCM|98=0|108=30|553=chris|554=tradermade|10=144|
20230711-13:57:55.325786000 : 8=FIX.4.4|9=103|35=A|34=34|49=D103452324_client1|52=20230711-13:57:55.325|56=FXCM|98=0|108=30|553=chris|554=tradermade|10=150|
20230711-13:58:25.563979000 : 8=FIX.4.4|9=103|35=A|34=36|49=D103452324_client1|52=20230711-13:58:25.563|56=FXCM|98=0|108=30|553=chris|554=tradermade|10=154|
20230711-13:58:55.814997000 : 8=FIX.4.4|9=103|35=A|34=38|49=D103452324_client1|52=20230711-13:58:55.814|56=FXCM|98=0|108=30|553=chris|554=tradermade|10=158|
20230711-13:59:25.556110000 : 8=FIX.4.4|9=103|35=A|34=40|49=D103452324_client1|52=20230711-13:59:25.555|56=FXCM|98=0|108=30|553=chris|554=tradermade|10=151|
20230711-13:59:55.308020000 : 8=FIX.4.4|9=103|35=A|34=42|49=D103452324_client1|52=20230711-13:59:55.307|56=FXCM|98=0|108=30|553=chris|554=tradermade|10=151|
20230711-14:01:29.669328000 : 8=FIX.4.4|9=103|35=A|34=44|49=D103452324_client1|52=20230711-14:01:29.668|56=FXCM|98=0|108=30|553=chris|554=tradermade|10=152|
20230711-14:01:59.818229000 : 8=FIX.4.4|9=103|35=A|34=46|49=D103452324_client1|52=20230711-14:01:59.817|56=FXCM|98=0|108=30|553=chris|554=tradermade|10=153|
20230711-14:03:21.930378000 : 8=FIX.4.4|9=103|35=A|34=48|49=D103452324_client1|52=20230711-14:03:21.909|56=FXCM|98=0|108=30|553=chris|554=tradermade|10=148|
20230711-14:04:05.260281000 : 8=FIX.4.4|9=103|35=A|34=49|49=D103452324_client1|52=20230711-14:04:05.244|56=FXCM|98=0|108=30|553=chris|554=tradermade|10=144|
20230711-14:10:26.153296000 : 8=FIX.4.4|9=103|35=A|34=50|49=D103452324_client1|52=20230711-14:10:26.152|56=FXCM|98=0|108=30|553=chris|554=tradermade|10=134|
20230711-15:09:52.736563000 : 8=FIX.4.4|9=103|35=A|34=52|49=D103452324_client1|52=20230711-15:09:52.733|56=FXCM|98=0|108=30|553=chris|554=tradermade|10=149|
20230711-15:10:27.960432000 : 8=FIX.4.4|9=103|35=A|34=53|49=D103452324_client1|52=20230711-15:10:27.956|56=FXCM|98=0|108=30|553=chris|554=tradermade|10=151|
20230711-15:11:52.215482000 : 8=FIX.4.4|9=103|35=A|34=54|49=D103452324_client1|52=20230711-15:11:52.210|56=FXCM|98=0|108=30|553=chris|554=tradermade|10=134|
20230711-15:12:22.703492000 : 8=FIX.4.4|9=103|35=A|34=56|49=D103452324_client1|52=20230711-15:12:22.702|56=FXCM|98=0|108=30|553=chris|554=tradermade|10=140|
20230711-15:12:52.296258000 : 8=FIX.4.4|9=103|35=A|34=58|49=D103452324_client1|52=20230711-15:12:52.295|56=FXCM|98=0|108=30|553=chris|554=tradermade|10=152|
20230711-15:13:22.207002000 : 8=FIX.4.4|9=103|35=A|34=60|49=D103452324_client1|52=20230711-15:13:22.206|56=FXCM|98=0|108=30|553=chris|554=tradermade|10=135|
20230711-15:13:52.551027000 : 8=FIX.4.4|9=103|35=A|34=62|49=D103452324_client1|52=20230711-15:13:52.550|56=FXCM|98=0|108=30|553=chris|554=tradermade|10=142|
20230711-15:14:22.703343000 : 8=FIX.4.4|9=103|35=A|34=64|49=D103452324_client1|52=20230711-15:14:22.702|56=FXCM|98=0|108=30|553=chris|554=tradermade|10=141|
20230711-15:14:52.818076000 : 8=FIX.4.4|9=103|35=A|34=66|49=D103452324_client1|52=20230711-15:14:52.817|56=FXCM|98=0|108=30|553=chris|554=tradermade|10=153|
20230711-15:15:23.099109000 : 8=FIX.4.4|9=103|35=A|34=68|49=D103452324_client1|52=20230711-15:15:23.098|56=FXCM|98=0|108=30|553=chris|554=tradermade|10=155|
20230711-15:15:52.264956000 : 8=FIX.4.4|9=103|35=A|34=70|49=D103452324_client1|52=20230711-15:15:52.264|56=FXCM|98=0|108=30|553=chris|554=tradermade|10=145|
20230711-15:16:38.419281000 : 8=FIX.4.4|9=103|35=A|34=72|49=D103452324_client1|52=20230711-15:16:38.418|56=FXCM|98=0|108=30|553=chris|554=tradermade|10=153|
20230711-15:17:19.069449000 : 8=FIX.4.4|9=103|35=A|34=74|49=D103452324_client1|52=20230711-15:17:19.065|56=FXCM|98=0|108=30|553=chris|554=tradermade|10=153|
20230711-15:17:55.315875000 : 8=FIX.4.4|9=103|35=A|34=76|49=D103452324_client1|52=20230711-15:17:55.315|56=FXCM|98=0|108=30|553=chris|554=tradermade|10=153|
20230711-15:20:05.427984000 : 8=FIX.4.4|9=103|35=A|34=78|49=D103452324_client1|52=20230711-15:20:05.412|56=FXCM|98=0|108=30|553=chris|554=tradermade|10=142|
20230711-15:22:41.427307000 : 8=FIX.4.4|9=103|35=A|34=79|49=D103452324_client1|52=20230711-15:22:41.411|56=FXCM|98=0|108=30|553=chris|554=tradermade|10=144|
20230711-15:23:11.205407000 : 8=FIX.4.4|9=103|35=A|34=80|49=D103452324_client1|52=20230711-15:23:11.204|56=FXCM|98=0|108=30|553=chris|554=tradermade|10=134|
20230711-15:23:41.871377000 : 8=FIX.4.4|9=103|35=A|34=82|49=D103452324_client1|52=20230711-15:23:41.870|56=FXCM|98=0|108=30|553=chris|554=tradermade|10=148|
20230711-15:24:00.149057000 : 8=FIX.4.4|9=103|35=A|34=83|49=D103452324_client1|52=20230711-15:24:00.148|56=FXCM|98=0|108=30|553=chris|554=tradermade|10=143|
20230711-15:24:30.975244000 : 8=FIX.4.4|9=103|35=A|34=85|49=D103452324_client1|52=20230711-15:24:30.974|56=FXCM|98=0|108=30|553=chris|554=tradermade|10=155|
20230711-15:25:00.159580000 : 8=FIX.4.4|9=103|35=A|34=87|49=D103452324_client1|52=20230711-15:25:00.158|56=FXCM|98=0|108=30|553=chris|554=tradermade|10=149|
20230711-15:26:57.516600000 : 8=FIX.4.4|9=103|35=A|34=88|49=D103452324_client1|52=20230711-15:26:57.515|56=FXCM|98=0|108=30|553=chris|554=tradermade|10=160|
20230711-15:27:27.640965000 : 8=FIX.4.4|9=103|35=A|34=90|49=D103452324_client1|52=20230711-15:27:27.640|56=FXCM|98=0|108=30|553=chris|554=tradermade|10=150|
20230711-15:27:57.287111000 : 8=FIX.4.4|9=103|35=A|34=92|49=D103452324_client1|52=20230711-15:27:57.286|56=FXCM|98=0|108=30|553=chris|554=tradermade|10=161|
20230711-15:28:27.195135000 : 8=FIX.4.4|9=103|35=A|34=94|49=D103452324_client1|52=20230711-15:28:27.194|56=FXCM|98=0|108=30|553=chris|554=tradermade|10=159|
20230711-15:28:57.232884000 : 8=FIX.4.4|9=103|35=A|34=96|49=D103452324_client1|52=20230711-15:28:57.232|56=FXCM|98=0|108=30|553=chris|554=tradermade|10=157|
20230711-15:29:27.231324000 : 8=FIX.4.4|9=103|35=A|34=98|49=D103452324_client1|52=20230711-15:29:27.230|56=FXCM|98=0|108=30|553=chris|554=tradermade|10=155|
20230711-15:29:57.544762000 : 8=FIX.4.4|9=104|35=A|34=100|49=D103452324_client1|52=20230711-15:29:57.544|56=FXCM|98=0|108=30|553=chris|554=tradermade|10=199|
20230711-15:30:39.295481000 : 8=FIX.4.4|9=104|35=A|34=102|49=D103452324_client1|52=20230711-15:30:39.294|56=FXCM|98=0|108=30|553=chris|554=tradermade|10=195|
20230711-15:31:09.414872000 : 8=FIX.4.4|9=104|35=A|34=104|49=D103452324_client1|52=20230711-15:31:09.414|56=FXCM|98=0|108=30|553=chris|554=tradermade|10=189|
20230711-15:36:58.556319000 : 8=FIX.4.4|9=104|35=A|34=105|49=D103452324_client1|52=20230711-15:36:58.555|56=FXCM|98=0|108=30|553=chris|554=tradermade|10=205|
20230711-15:37:28.277636000 : 8=FIX.4.4|9=104|35=A|34=107|49=D103452324_client1|52=20230711-15:37:28.276|56=FXCM|98=0|108=30|553=chris|554=tradermade|10=205|
20230711-15:37:58.979315000 : 8=FIX.4.4|9=104|35=A|34=109|49=D103452324_client1|52=20230711-15:37:58.942|56=FXCM|98=0|108=30|553=chris|554=tradermade|10=210|
